:020000040000FA
:060000000A128A1110280B
:10000800FE00030E83120313AC000408AD000A08B7
:10001800AE000A128A117C2A0A128A111328831246
:100028000313B501B601B701B801B901BA01BB01A3
:10003800BC01BD01BE01BF01C001C101C2018301F4
:100048000A128A1127280A128A1124230A128A11ED
:100058000A128A1143230A128A1100300A128A11DD
:100068002C210A128A110A128A1162230A128A1191
:10007800013083120313B2008030B3000A128A11D0
:10008800AC220A128A1100300A128A1175230A1248
:100098008A11831203138601061400300A128A118A
:1000A8008C230A128A11C73083120313B4005C2808
:1000B800B40B5B285F2883120313061086140030E4
:1000C8000A128A118C230A128A11C7308312031369
:1000D800B4006E28B40B6D287128831203138610A0
:1000E800061500300A128A118C230A128A1183120B
:1000F80003138601C0300A128A11FF210A128A11DD
:1001080000300A128A11BC210A128A111230831295
:100118000313B2008030B3000A128A11AC220A120B
:100128008A11003083120313B2000030B3000A12A0
:100138008A11AC220A128A11103083120313B200FA
:100148008030B3000A128A11AC220A128A110030D8
:1001580083120313B2000030B3000A128A11AC22D2
:100168000A128A112C280A128A11102883120313E2
:10017800A3007908A1007808A0007B08F1007A089C
:10018800F0002108F3002008F2000A128A117821F1
:100198000A128A11710883120313A1007008A000C3
:1001A8000130FC007C08A30720082104031DDD287A
:1001B800DE28C12823088400831380010130A302AC
:1001C8007B08F1007A08F0007908F3007808F2005B
:1001D8000A128A1142220A128A117008FC007C084D
:1001E80083120313A2007B08F1007A08F000790853
:1001F800F3007808F2000A128A1178210A128A118B
:100208007108F9007008F8000A30831203132202FB
:10021800031C0F29102914290730FC007C08A207A9
:100228003030FC007C08A2072208FC002308840068
:100238007C08831380000130A30278087904031D29
:1002480026292729E4280130FC007C08A307080098
:1002580083120313B10061298316031387128711D0
:100268009413141314102030831203139400772965
:100278008316031387128711941314131410213053
:1002880083120313940077298316031387128711A7
:100298009413141314102230831203139400772933
:1002A8008316031387128715071694131413141053
:1002B800243083120313940077293108AF00B0016A
:1002C8003008003A0319692977292F08003A0319D9
:1002D8003029013A03193C29033A03194829013AFC
:1002E8000319542977290800F501F60170087104EB
:1002F80003197F298029B729F701F70A8E290130C8
:100308000310F00DF10DFF3E031D84290130F400A8
:100318007408F707F11F91299229832901300310E6
:10032800F50DF60DFF3E031D932971087302031D99
:100338009F2970087202031CA229A329AA29700800
:10034800F2027108031CF303F30275140130031061
:10035800F10CF00CFF3E031DAB290130F702031D21
:10036800B629B72992297608F1007508F000080027
:1003780083120313B100FF3088008030AF002F08CC
:100388008805091089140911273083120313B00056
:10039800F430AF00AF0BCE29B00BCE29000083128A
:1003A8000313091580300806031DDB29DC29EB2916
:1003B8000911273083120313B000F430AF00AF0BDC
:1003C800E329B00BE3290000831203130915310850
:1003D8008800091489100915273083120313B00007
:1003E800F430AF00AF0BF629B00BF62900008312EA
:1003F80003130911080083120313B100FF308800AA
:100408008030AF002F08880509108914091127309A
:1004180083120313B000F430AF00AF0B112AB00BF6
:10042800112A000083120313091580300806031DE2
:100438001E2A1F2A2E2A0911273083120313B000FF
:10044800F430AF00AF0B262AB00B262A0000831227
:100458000313091531088800091089100915273078
:1004680083120313B000F430AF00AF0B392AB00B7E
:10047800392A000083120313091108007008710457
:100488000319472A482A772AF501F50A562A01301E
:100498000310F00DF10DFF3E031D4C2A0130F4004E
:1004A8007408F507F11F592A5A2A4B2A7108730252
:1004B800031D602A70087202031C632A642A6A2AD0
:1004C8007008F2027108031CF303F30201300310F1
:1004D800F10CF00CFF3E031D6B2A0130F502031DE1
:1004E800762A772A5A2A7308F1007208F000080061
:1004F8008C1E7F2A802AA32A1A08AA00AB012A0880
:10050800F0002B08F1000A128A1181230A128A11BD
:10051800710883120313B8007008B7003808A500E3
:100528003708A4000A30A6000030A7003E300A129F
:100538008A11D4220A128A11831203138C122E08EC
:100548008A002D0884002C0E8300FE0E7E0E090002
:10055800C32A3308FF00320884000A128A110023D4
:100568000A128A110A128A11BC210A128A11013050
:1005780083120313B2070318B30A0030B3078312B8
:1005880003133308FF00320884000A128A1100237B
:100598000A128A11003A031DD22AD32AAD2A08006A
:1005A80083120313A900A51FDA2ADB2AEB2A2D30B0
:1005B800FD00290884007D08831380000130FD00B8
:1005C8007D08A907A409A509A40A0319A50A2508ED
:1005D800F9002408F8002708FB002608FA00290873
:0C05E8000A128A11BA200A128A110800B7
:10060000FF1B0A2B83137F1883170008840A031922
:10061000FF0A080003308A000408840A82070034B5
:1006200053343134203420342034203453343234A1
:1006300020342034203420345334333420342034D4
:1006400000344C34203400340930831603178800FA
:10065000890109308316031385008601870188010B
:1006600089018312031385018601870188018901AD
:10067000831603130F088F3960388F008F110F1105
:100680008F100F14080038300A128A11FF210A1245
:100690008A110C300A128A11FF210A128A110130C4
:1006A0000A128A11FF210A128A1106300A128A11CF
:1006B000FF210A128A1180300A128A11FF210A12C0
:1006C0008A1108001930831603139900181598161B
:1006D0001812181383120313181698171813831679
:1006E00003138C160B178B17080083160313141CA7
:1006F0007A2B7B2B7C2B802B14187F2B802B802B31
:100700000800710883120313B6007008B50036089C
:10071000F1003508F00008008312031313088C1150
:020720000800CF
:04400E00D420FF3F7C
:00000001FF
