:020000040000FA
:060000000A128A1110280B
:10000800FE00030E83120313AC000408AD000A08B7
:10001800AE000A128A113E2A0A128A111328831284
:100028000313B501B601B701B801B901BA01BB01A3
:10003800BC01BD01BE01BF01C001C101C2018301F4
:100048000A128A1127280A128A11F5220A128A111D
:100058000A128A11D6220A128A1183120313AF01D7
:10006800B001B10120300A128A11B7220A128A118E
:100078000A128A1126230A128A1101300A128A11D9
:1000880094220A128A11C0300A128A11C1210A1256
:100098008A118312031386010614C73083120313CF
:1000A800B4005628B40B552859280A128A1144233B
:1000B8000A128A1183120313B4003408BC003C08E6
:1000C8000A128A117E210A128A11C7308312031379
:1000D800B4006E28B40B6D28712883120313061020
:1000E80010300A128A1194220A128A1183120313F9
:1000F8008614C73083120313B4008228B40B8128F6
:1001080085280A128A1144230A128A1183120313BA
:10011800B4003408BB003B080A128A117E210A1277
:100128008A11C73083120313B4009A28B40B992894
:100138009D2883120313861010300A128A11942204
:100148000A128A11831203130615C7308312031388
:10015800B400AE28B40BAD28B1280A128A11442382
:100168000A128A1183120313B4003408BA003A0839
:100178000A128A117E210A128A1183120313861128
:100188002C280A128A11102883120313A300790855
:10019800A1007808A0007B08F1007A08F000210887
:1001A800F3002008F2000A128A113A210A128A1171
:1001B800710883120313A1007008A0000130FC002D
:1001C8007C08A30720082104031DEB28EC28CF286E
:1001D80023088400831380010130A3027B08F10007
:1001E8007A08F0007908F3007808F2000A128A11F8
:1001F80004220A128A117008FC007C088312031377
:10020800A2007B08F1007A08F0007908F30078086A
:10021800F2000A128A113A210A128A117108F900A9
:100228007008F8000A30831203132202031C1D29E8
:100238001E2922290730FC007C08A2073030FC0068
:100248007C08A2072208FC00230884007C0883138A
:1002580080000130A30278087904031D3429352968
:10026800F2280130FC007C08A3070800F501F6011C
:10027800700871040319412942297929F701F70AFD
:10028800502901300310F00DF10DFF3E031D4629E2
:100298000130F4007408F707F11F53295429452940
:1002A80001300310F50DF60DFF3E031D55297108A9
:1002B8007302031D612970087202031C64296529F1
:1002C8006C297008F2027108031CF303F302751419
:1002D80001300310F10CF00CFF3E031D6D290130B5
:1002E800F702031D7829792954297608F100750841
:1002F800F000080083120313B100FF30880080303B
:10030800AF002F08880509108914091127308312B6
:100318000313B000F430AF00AF0B9029B00B902955
:10032800000083120313091580300806031D9D2958
:100338009E29AD290911273083120313B000F43028
:10034800AF00AF0BA529B00BA5290000831203133A
:1003580009153108880009148910091527308312F6
:100368000313B000F430AF00AF0BB829B00BB829B5
:100378000000831203130911080083120313B1004C
:10038800FF3088008030AF002F08880509108914D5
:100398000911273083120313B000F430AF00AF0BFC
:1003A800D329B00BD3290000831203130915803019
:1003B8000806031DE029E129F029091127308312D5
:1003C8000313B000F430AF00AF0BE829B00BE829F5
:1003D80000008312031309153108880009108910D9
:1003E8000915273083120313B000F430AF00AF0BA8
:1003F800FB29B00BFB290000831203130911080025
:10040800700871040319092A0A2A392AF501F50A1C
:10041800182A01300310F00DF10DFF3E031D0E2ABE
:100428000130F4007408F507F11F1B2A1C2A0D2A55
:1004380071087302031D222A70087202031C252A00
:10044800262A2C2A7008F2027108031CF303F3020F
:1004580001300310F10CF00CFF3E031D2D2A013072
:10046800F502031D382A392A1C2A7308F10072087C
:10047800F00008008C1E412A422A652A1A08AA00A0
:10048800AB012A08F0002B08F1000A128A1139235F
:100498000A128A11710883120313B8007008B70092
:1004A8003808A5003708A4000A30A6000030A700C5
:1004B8003E300A128A116E220A128A11831203131D
:1004C8008C122E088A002D0884002C0E8300FE0E44
:1004D8007E0E090083120313A900A51F742A752A2A
:1004E800852A2D30FD00290884007D0883138000AB
:1004F8000130FD007D08A907A409A509A40A03196C
:10050800A50A2508F9002408F8002708FB00260892
:10051800FA0029080A128A11C8200A128A1108004A
:1005280083120313B300AA2A330884000A128A111B
:100538000F230A128A110A128A117E210A128A11BD
:10054800013083120313B2003208B3073308840062
:100558000A128A110F230A128A11003A031DB52ABA
:10056800B62A982A080083120313B20083160313CD
:100578008712071683120313321DC32AC42ACA2AF4
:1005880031088316031394008715D02A2F083104E5
:10059800831603139400871183120313320830045F
:1005A8009400080038300A128A11C1210A128A11EF
:1005B8000C300A128A11C1210A128A1101300A125A
:1005C8008A11C1210A128A1106300A128A11C12120
:1005D8000A128A1180300A128A11C1210A128A115C
:1005E800080009308316031788008901093083162B
:1005F800031385008601870188018901831203138B
:1006080085018601870188018901831603138C16E9
:100618000B178B17080003308A000408840A820726
:1006280000345334313420342034203420345334CB
:1006380032342034203420342034533433342034BA
:1006480020340034193083160313990018159816AE
:1006580018121813831203131816981718138316F1
:1006680003138C160B178B170800710883120313DA
:10067800B6007008B5003608F1003508F00008002B
:1006880083160313141C492B4A2B442B8312031380
:04069800130808003B
:04400E00D420FF3F7C
:00000001FF
