:020000040000FA
:060000000A128A11F92F1B
:100D8600F00070088312031393008C1108000130E1
:100D9600F7028230F100DD30F000F00BD02EF10BBF
:100DA600D02ED52E080083160313141CDB2EDC2E42
:100DB600DD2EE12E1418E02EE12EE12E0800013082
:100DC600F0007008F7078230F100DD30F000F00B1C
:100DD600EA2EF10BEA2EEF2E080083160313890183
:100DE6008312031389018316031788018901831669
:100DF60003138601831203138601831603138701E7
:100E060083120313870183160313880183120313C6
:100E16008801831603130F088F3960388F008F11EE
:100E26000F118F100F140800F2004A2F83160313B8
:100E3600871287119413141314102030831203138E
:100E46009400602F831603138712871194131413CB
:100E560014102130831203139400602F831603139A
:100E6600871287119413141314102230831203135C
:100E76009400602F831603138712871507169413A1
:100E8600141314102430831203139400602F720875
:100E9600F000F1017108003A0319522F602F700813
:100EA600003A0319192F013A0319252F033A03199A
:100EB600312F013A03193D2F602F08000A128A11BB
:100EC600F0260A128A1103300A128A1117270A120B
:100ED6008A11831203138618712F722F782F061921
:100EE600752F762F782FF601F60A7603031D7C2FD1
:100EF6007D2FC12F861C802F812F872F0A128A11E2
:100F0600E2260A128A11F60183120313061D8C2F9C
:100F16008D2FC12F0A128A11CA260A128A11F601CA
:100F2600C12F831203138801E92F8312031388103C
:100F36000814E92F8312031308118814E92F83126A
:100F4600031388110815E92F831203130812881555
:100F5600E92F8312031388120816E92F831203134D
:100F660008138816E92F8312031388130817E92F2D
:100F7600831203138817E92FF701E92F7708F30087
:100F8600F4017408003A0319C92FE92F7308003ACF
:100F96000319942F013A0319982F033A03199D2F29
:100FA600013A0319A22F073A0319A72F013A031989
:100FB600AC2F033A0319B12F013A0319B62F0F3A92
:100FC6000319BB2F013A0319BF2FE92F00300A126C
:100FD6008A11D6260A128A1177080A128A11C3269E
:100FE6000A128A11662F0A128A110028F501F601E3
:0A0FF600F70183010A128A11612F2E
:04400E00D420FF3F7C
:00000001FF
