:020000040000FA
:060000000A128A11FA2F1A
:100E68000130F5028230F100DD30F000F00B3A2F4E
:100E7800F10B3A2F3F2F08000130F0007008F507FA
:100E88008230F100DD30F000F00B482FF10B482FD5
:100E98004D2F080083160313890183120313890158
:100EA80083160317880189018316031386018312A9
:100EB8000313860183160313870183120313870123
:100EC80083160313880183120313880183160313FF
:100ED8000F088F3960388F008F110F118F100F1482
:100EE80008000A128A114E270A128A118312031364
:100EF80086187F2F802F862F0619832F842F862F01
:100F0800F401F40A7403031D8A2F8B2FCF2F861C3C
:100F18008E2F8F2F952F0A128A1140270A128A11B5
:100F2800F40183120313061D9A2F9B2FCF2F0A1249
:100F38008A1134270A128A11F401CF2F831203135E
:100F480088017A2F83120313881008147A2F8312CA
:100F58000313081188147A2F8312031388110815B4
:100F68007A2F83120313081288157A2F831203131A
:100F7800881208167A2F83120313081388167A2FFB
:100F880083120313881308177A2F83120313881701
:100F98007A2FF5017A2F7508F200F3017308003AE9
:100FA8000319D72F7A2F7208003A0319A22F013A92
:100FB8000319A62F033A0319AB2F013A0319B02FCF
:100FC800073A0319B52F013A0319BA2F033A03193F
:100FD800BF2F013A0319C42F0F3A0319C92F013A39
:100FE8000319CD2F7A2F0A128A110028F401F5016E
:080FF80083010A128A11752F12
:04400E00D420FF3F7C
:00000001FF
