:020000040000FA
:060000000A128A110C280F
:10000800FE00030EF2000A08F3000A128A11C02843
:100018000A128A110F28F501F601F701F801830188
:100028000A128A1117280A128A11DE200A128A1166
:100038008B170B17831203138C11831603138C155C
:1000480007309F0083120313A001A101A2012430ED
:100058000A128A11A1200A128A1183120313861820
:10006800362837283D2806193A283B283D28F70125
:10007800F70A7703031D412842287428861C45285F
:1000880046284C280A128A11F4200A128A11F7010C
:1000980083120313061D5128522874280A128A1144
:1000A8000A210A128A11F701742888011C2888106D
:1000B80008141C28081188141C28881108151C28E5
:1000C800081288151C28881208161C280813881678
:1000D8001C28881308171C2888171C28F8011C28B6
:1000E800780883120313A300A4012408003A031913
:1000F8007E281C282308003A03195928013A0319B5
:100108005B28033A03195E28013A03196128073A64
:1001180003196428013A03196728033A03196A285E
:10012800013A03196D280F3A03197028013A031987
:1001380072281C280A128A110C28F400831603134B
:1001480087120716741DA928AA28B2288312031338
:1001580022088316031394008715BA288312031301
:10016800200822048316031394008711740883124D
:100178000313210494000800831203138C1DC5285F
:10018800C628D7280A128A111C210A128A11F100DE
:100198007108F50078080A128A112C210A128A11AE
:1001A800831203138C1173088A00720E8300FE0EEB
:1001B8007E0E09008316031385168316031788011C
:1001C80089018316031386018312031386011830ED
:1001D800831603138700880183120313880108001C
:1001E800013083120313A0002008F807023083129D
:1001F8000313A2000430A100B930A000A00B02290B
:10020800A10B0229A20B0229092908000130F802D2
:10021800023083120313A2000430A100B930A000F9
:10022800A00B1429A10B1429A20B14291B290800BF
:100238000A128A1125210A128A118312031313083C
:10024800080083160313141C2A292B2925290800C2
:0C025800F00070088312031393000800EC
:04400E00D120FF3F7F
:00000001FF
