:020000040000FA
:060000000A128A110C280F
:10000800FE00030EF2000A08F3000A128A11B6284D
:100018000A128A110F28F501F601F701F801830188
:100028000A128A1117280A128A11D4200A128A1170
:1000380083120313A001A101A20124300A128A111C
:1000480097200A128A118312031386182C282D2848
:1000580033280619302831283328F701F70A77039F
:10006800031D372838286A28861C3B283C28422844
:100078000A128A11EA200A128A11F701831203135D
:10008800061D472848286A280A128A1100210A12E0
:100098008A11F7016A2888011C28881008141C286E
:1000A800081188141C28881108151C28081288159E
:1000B8001C28881208161C28081388161C28881360
:1000C80008171C2888171C28F8011C287808831290
:1000D8000313A300A4012408003A031974281C2858
:1000E8002308003A03194F28013A03195128033A03
:1000F80003195428013A03195728073A03195A28AB
:10010800013A03195D28033A03196028013A0319D3
:1001180063280F3A03196628013A031968281C282E
:100128000A128A110C28F400831603138712071683
:10013800741D9F28A028A828831203132208831659
:10014800031394008715B028831203132008220490
:100158008316031394008711740883120313210470
:1001680094000800831203138C1DBB28BC28CD28DB
:100178000A128A1112210A128A11F1007108F50077
:1001880078080A128A1122210A128A11831203138B
:100198008C1173088A00720E8300FE0E7E0E090011
:1001A80083160317880189018316031385018601C5
:1001B80010308700880183120313850186018701A7
:1001C80088018901831603138516080001308312FC
:1001D8000313A0002008F807023083120313A200BB
:1001E8000430A100B930A000A00BF828A10BF82812
:1001F800A20BF828FF2808000130F8020230831209
:100208000313A2000430A100B930A000A00B0A29F2
:10021800A10B0A29A20B0A29112908000A128A111E
:100228001B210A128A11831203131308080083166C
:100238000313141C202921291B290800F000700829
:08024800831203139300080068
:04400E00D120FF3F7F
:00000001FF
