:020000040000FA
:060000000A128A11FA2F1A
:100EC800F00070088312031393008C110800831636
:100ED8000313141C702F712F722F762F1418752F6F
:100EE800762F762F08000A128A1192270A128A1181
:100EF80003300A128A11B0270A128A1100300A1226
:100F08008A116B270A128A1100300A128A11642783
:100F18000A128A117C2F0A128A11002809308316B6
:100F28000317880089010930831603138500860199
:100F380088018901831203138501860187018801CD
:100F48008901831603130F088F3960388F008F11BA
:100F58000F118F100F140800F200E32F83160313EC
:100F6800871287119413141314102030831203135B
:100F78009400F92F831603138712871194131413FF
:100F880014102130831203139400F92F83160313CE
:100F98008712871194131413141022308312031329
:100FA8009400F92F831603138712871507169413D5
:100FB800141314102430831203139400F92F7208A9
:100FC800F000F1017108003A0319EB2FF92F7008AE
:100FD800003A0319B22F013A0319BE2F033A031935
:100FE800CA2F013A0319D62FF92F0800F301F4018B
:080FF80083010A128A11772F10
:04400E00D420FF3F7C
:00000001FF
