:020000040000FA
:060000000A128A11FA2F1A
:100F6A00F0007008831203139300080009308316F7
:100F7A000317880089010930831603138500860147
:100F8A0008308700880189010800F30083160313DB
:100F9A0087120716731DD22FD32FD72F72089400EA
:100FAA008715DB2F70087204940087117308710487
:100FBA0083120313940008000A128A11BB270A122B
:100FCA008A11F001F101F20124300A128A11CA27AA
:100FDA000A128A11F50100300A128A11B5270A127B
:100FEA008A11E62F0A128A110028F401F5018301F9
:060FFA000A128A11E12F2A
:04400E00D420FF3F7C
:00000001FF
