:020000040000FA
:060000000A128A110C280F
:10000800FE00030EF2000A08F3000A128A113528CE
:100018000A128A110F28F701F801F90183010A125F
:100028008A11532883120313A0008316031387121F
:10003800071683120313201D22282328292876084F
:1000480083160313940087152F28740876048316E3
:100058000313940087118312031320087504940076
:100068000800831203138C1D3A283B284C280A12D7
:100078008A117B200A128A11F1007108F7007908A9
:100088000A128A118B200A128A11831203138C1107
:1000980073088A00720E8300FE0E7E0E09000A1293
:1000A8008A1168200A128A11831603138516F4012F
:1000B800F501F60124300A128A1116200A128A1153
:1000C80058280A128A110C288316031788018901F7
:1000D8008316031385018601103087008801831277
:1000E80003138501860187018801890108000A1226
:1000F8008A1184200A128A11831203131308080034
:1001080083160313141C89288A2884280800F00001
:0A011800700883120313930008001F
:04400E00D120FF3F7F
:00000001FF
