:020000040000FA
:100000000A128A11FC2F00308A000408840A820731
:1000100000347734773477342E3465346C34653477
:100020006334743472346F3453346F346D346534E4
:100030002E3463346F346D3400344C3443344434E0
:1000400020344C346934623472346134723479341B
:10005000203466346F34723400344434653476347A
:1000600065346C346F347034653464342034423415
:100070007934003465346C346534633474347234E8
:100080006F3453346F346D34653400344D34503430
:100090004C344134423420345834433438340034FE
:100AC20000300A128A1188250A128A1101300A128C
:100AD2008A1188250A128A11080001300A128A1125
:100AE20088250A128A1108300A128A1188250A12E8
:100AF2008A11080001300A128A1188250A128A1105
:100B02000C300A128A1188250A128A110800F30091
:100B120083120313091073080A128A111D260A127E
:100B22008A118312031389140B30F2006230F10030
:100B3200F10B992DF20B992D0000831203138910EA
:100B4200080083160317880189018316031386019F
:100B5200831203138601831603138701831203137F
:100B620087018316031388018312031388018316F6
:100B7200031389018312031389010800F700F501A9
:100B8200F601D62D7508770784000A128A11032010
:100B92000A128A110A128A11E4250A128A110130F4
:100BA200F5070318F60A0030F60775087707840080
:100BB2000A128A1103200A128A11003A031DE22D39
:100BC200E32DC32D0800F40074080F39F1007108F9
:100BD200F2007408F039F1007108F3008312031374
:100BE20009147308F10004300310F10CFF3E031DD9
:100BF200F52D71080A128A111D260A128A11831212
:100C0200031389141A30F100F10B052E0000831230
:100C12000313891072080A128A111D260A128A11F8
:100C22008312031389141A30F100F10B162E0000FF
:100C32008312031389100800F000701C212E222E4B
:100C4200262E831203130814292E8312031308106D
:100C5200F01C2C2E2D2E2F2E8814302E8810701D55
:100C6200332E342E362E0815372E0811F01D3A2E4B
:100C72003B2E3D2E88153E2E8811701E412E422E8F
:100C8200442E0816452E0812F01E482E492E4B2ED1
:100C920088164C2E8812701F4F2E502E522E081777
:100CA200532E0813F01F562E572E592E88175A2EE0
:100CB20088130800F7007703031D602E612E842E2F
:100CC20074087F3EF5007508FA007A08F5000430D2
:100CD2000310F50CFF3E031D692E7508F600760819
:100CE200F8007A080F39F5007508F90078080A1239
:100CF2008A1188250A128A1179080A128A1188250E
:100D02000A128A11AC2E02307706031D892E8A2E12
:100D1200AC2E7408BF3EF5007508FA007A08F5009B
:100D220004300310F50CFF3E031D922E7508F600E9
:100D32007608F8007A080F39F5007508F900780886
:100D42000A128A1188250A128A1179080A128A114E
:100D520088250A128A11080000300A128A111D26FB
:100D62000A128A113430F500F130F400F40BB72E78
:100D7200F50BB72EBC2E03300A128A1188250A12EF
:100D82008A110D30F500FB30F400F40BC62EF50B82
:100D9200C62ECB2E03300A128A1188250A128A1116
:100DA2001D30F5009130F400F40BD52EF50BD52E45
:100DB20003300A128A1188250A128A1102300A1295
:100DC2008A1188250A128A1102300A128A1188258C
:100DD2000A128A1108300A128A1188250A128A1107
:100DE20000300A128A1188250A128A110C300A125E
:100DF2008A1188250A128A1100300A128A1188255E
:100E02000A128A1106300A128A1188250A128A11D8
:100E120008000A128A11A2250A128A1183160313E4
:100E220088010A128A11AD260A128A110A128A113F
:100E320061250A128A11F401F40A01300A128A1198
:100E42005B260A128A1115300A128A11BF250A126C
:100E52008A11F401F40A02300A128A115B260A127C
:100E62008A113E300A128A11BF250A128A111530E0
:100E7200FD004B30FC00BE30FB00FB0B3E2FFC0B99
:100E82003E2FFD0B3E2F00000A128A1161250A1225
:100E92008A11F401F40A01300A128A115B260A123D
:100EA2008A1125300A128A11BF250A128A11F40109
:100EB200F40A02300A128A115B260A128A113230AF
:100EC2000A128A11BF250A128A111530FD004B3011
:100ED200FC00BE30FB00FB0B6C2FFC0B6C2FFD0BE0
:100EE2006C2F00000A128A1161250A128A11F4017C
:100EF200F40A01300A128A115B260A128A110130A1
:100F02000A128A11BF250A128A1183120313A00141
:100F1200A1010430FD000C30FC003330FB00FB0B60
:100F2200902FFC0B902FFD0B902F972F0A128A11F6
:100F32006E250A128A11013083120313A0070318C7
:100F4200A10A0030A107003021020F30031920024C
:100F5200031CAC2FAD2F8A2FA001A1010430FD008C
:100F62000C30FC003330FB00FB0BB52FFC0BB52F14
:100F7200FD0BB52FBC2F0A128A117B250A128A118A
:100F8200013083120313A0070318A10A0030A1073E
:100F9200003021020F3003192002031CD12FD22F5F
:100FA200AF2F0A128A1161250A128A11F401F40A7A
:100FB20002300A128A115B260A128A1165300A125D
:100FC2008A11E4250A128A1153300A128A11E42581
:100FD2000A128A111530FD004B30FC00BE30FB00B6
:100FE200FB0BF12FFC0BF12FFD0BF12F0000172F44
:0E0FF2000A128A11002883010A128A110A2F9E
:04400E00D620FF3F7A
:00000001FF
