:020000040000FA
:060000000A128A1110280B
:10000800FE00030E83120313AF000408B0000A08B1
:10001800B1000A128A11C82F0A128A1113288313F1
:100028004D3084005D300A128A1501200A128A11A7
:10003800A0308400D6300A128A1501200A128A11CB
:1000480083160317A101A201A301A401A50183013D
:100058000A128A153A2C8312031343088039C80000
:10006800480883160313D600831203134308C800F5
:100078004807C900490883160313DC0083120313D9
:10008800C21F472848284B28831603135C1483167D
:1000980003135C0803195128522864285C0A031DBD
:1000A800562857286128003083120313C3000030F4
:1000B800C2000030C1000030C0008312C2176E2891
:1000C800003083120313C3000030C2000030C100A7
:1000D8000030C00047088039C80048088316031359
:1000E800D606831203134708C8004807C900490801
:1000F80083160313D70083120313C61F8428852889
:1001080088288316031357148316031357080319F3
:100118008E288F28A128570A031D932894289E28E3
:10012800003083120313C7000030C6000030C5003A
:100138000030C4008312C617AB28003083120313A3
:10014800C7000030C6000030C5000030C400831668
:10015800031357080319B128B228B7285C08031DF0
:10016800B628B728C228003083120313C300003012
:10017800C2000030C1000030C0008D2D831203136F
:100188004008C8004808B20046080A168A119B268B
:100198000A128A1183120313330883160313E20029
:1001A80083120313320883160313E10061088312D4
:1001B8000313C800C901CA01CB014B0883160313F6
:1001C800DB00831203134A0883160313DA00831231
:1001D8000313490883160313D9008312031348082D
:1001E80083160313D800620883120313C800C901D9
:1001F800CA01CB014B0883160313E00083120313D3
:100208004A0883160313DF00831203134908831671
:100218000313DE0083120313480883160313DD005B
:10022800831203134108C8004808B20045080A169B
:100238008A119B260A128A11831203133308831624
:100248000313E20083120313320883160313E10039
:10025800610883120313C800C901CA01CB01480809
:1002680083160313D80783120313490803110318CD
:10027800013E0319422983160313D9078312031376
:100288004A0803110318013E03194D298316031365
:10029800DA07831203134B0803110318013E0319ED
:1002A800582983160313DB078312031383160313DA
:1002B800620883120313C800C901CA01CB014808A8
:1002C80083160313DD078312031349080311031868
:1002D800013E0319722983160313DE0783120313E1
:1002E8004A0803110318013E03197D2983160313D5
:1002F800DF07831203134B0803110318013E031988
:10030800882983160313E007831203138316031344
:10031800831203134208C8004808B20044080A16AA
:100328008A119B260A128A11831203133308831633
:100338000313E20083120313320883160313E10048
:10034800610883120313C800C901CA01CB01480818
:1003580083160313D80783120313490803110318DC
:10036800013E0319BA2983160313D907831203130D
:100378004A0803110318013E0319C52983160313FC
:10038800DA07831203134B0803110318013E0319FC
:10039800D02983160313DB07831203138316031371
:1003A800620883120313C800C901CA01CB014808B7
:1003B80083160313DD078312031349080311031877
:1003C800013E0319EA2983160313DE078312031378
:1003D8004A0803110318013E0319F529831603136C
:1003E800DF07831203134B0803110318013E031997
:1003F800002A83160313E0078312031383160313DB
:10040800083083120313C800031083160313D80D92
:10041800D90DDA0DDB0D83120313C80B082A410826
:10042800C8004808B20044080A168A119B260A1216
:100438008A1183120313330883160313E20083120D
:100448000313320883160313E100610883120313B0
:10045800C80083160313620883120313C900CA0174
:10046800CB01480883160313D807831203134908DE
:1004780003110318013E0319442A83160313D907ED
:10048800831203134A0803110318013E03194F2A64
:1004980083160313DA07831203134B080311031897
:1004A800013E03195A2A83160313DB078312031329
:1004B80083160313831203134008C8004808B200C8
:1004C80045080A168A119B260A128A1183120313F9
:1004D800330883160313E2008312031332088316CA
:1004E8000313E100610883120313C8008316031382
:1004F800620883120313C900CA01CB014808831696
:100508000313D80783120313490803110318013E84
:100518000319912A83160313D907831203134A0870
:1005280003110318013E03199C2A83160313DA07E3
:10053800831203134B0803110318013E0319A72A5A
:1005480083160313DB078312031383160313083080
:1005580083120313C800031083160313D80DD90D93
:10056800DA0DDB0D83120313C80BAF2A4008C8004D
:100578004808B20044080A168A119B260A128A11F2
:1005880083120313330883160313E2008312031341
:10059800320883160313E100610883120313C800AD
:1005A80083160313620883120313C900CA01CB011F
:1005B800480883160313D807831203134908031145
:1005C8000318013E0319EB2A83160313D907831274
:1005D80003134A0803110318013E0319F62A831668
:1005E8000313DA07831203134B0803110318013EA0
:1005F8000319012B83160313DB07831203138316D6
:100608000313831203134108C8004808B2004608C0
:100618000A168A119B260A128A11831203133308B9
:1006280083160313E200831203133208831603139D
:10063800E100610883120313C800831603136208DC
:1006480083120313C900CA01CB0148088316031398
:10065800DD0783120313490803110318013E031928
:10066800382B83160313DE07831203134A0803117A
:100678000318013E0319432B83160313DF07831264
:1006880003134B0803110318013E03194E2B83165D
:100698000313E00783120313831603138312031350
:1006A8004208C8004808B20045080A168A119B2665
:1006B8000A128A1183120313330883160313E20004
:1006C80083120313320883160313E10061088312AF
:1006D8000313C80083160313620883120313C900A7
:1006E800CA01CB01480883160313DD0783120313DD
:1006F800490803110318013E0319852B83160313B8
:10070800DE07831203134A0803110318013E031975
:10071800902B83160313DF07831203134B0803116F
:100728000318013E03199B2B83160313E00783125A
:10073800031383160313831203134208C8004808DF
:10074800B20046080A168A119B260A128A118312D9
:100758000313330883160313E200831203133208CA
:1007680083160313E100610883120313C80083167C
:100778000313620883120313C900CA01CB010830AE
:100788000310C80DC90DCA0DCB0DFF3E031DC42BA8
:10079800480883160313DD0783120313490803115E
:1007A8000318013E0319DB2B83160313DE0783129C
:1007B80003134A0803110318013E0319E62B831695
:1007C8000313DF07831203134B0803110318013EB9
:1007D8000319F12B83160313E007831203138316FF
:1007E8000313580883120313C80083160313590808
:1007F80083120313C900831603135A0883120313C1
:10080800CA00831603135B0883120313CB00183046
:100818000310CB0CCA0CC90CC80CFF3E031D0C2CD2
:10082800480883160313DD078312031349080311CD
:100838000318013E0319232C83160313DE078312C2
:1008480003134A0803110318013E03192E2C8316BB
:100858000313DF07831203134B0803110318013E28
:100868000319392C83160313E00783120313831625
:100878000313083083120313C800031083160313ED
:10088800D80DD90DDA0DDB0D83120313C80B412CDB
:10089800831603135C08570783120313C800C901A2
:1008A800C90D4808823E83160313E100831203131F
:1008B80049080318013EFF3E83160313E200912CFA
:1008C800013083120313C800031083160313DD0DD0
:1008D800DE0DDF0DE00D83120313C80B682C8316A1
:1008E8000313DB1F782C792C7A2C5D1401308312CA
:1008F8000313C800031083160313D80DD90DDA0D9E
:10090800DB0D83120313C80B7E2CFF3083160313F1
:10091800E1070318E20AFF30E207DF1F942C952C49
:10092800642CD701DB1F992C9A2CC82CFF30580552
:1009380083120313C800FF3083160313590583126B
:100948000313C900FF30831603135A0583120313D8
:10095800CA007F30831603135B0583120313CB0091
:100968004B084A04490448040319BB2CBC2CC12C6D
:1009780083160313D701D70AC82C831603135D1CEB
:10098800C62CC72CC82CBC2C57080319CC2CCD2C32
:100998001A2D0130DD07003003180130DE07003062
:1009A80003180130DF07003003180130E007601C2E
:1009B800DE2CDF2C1A2D5D0883120313C800831662
:1009C80003135E0883120313C900831603135F0819
:1009D80083120313CA0083160313600883120313D8
:1009E800CB000130CC004B0DCB0CCA0CC90CC80C89
:1009F800CC0BF72C4B0883160313E0008312031368
:100A08004A0883160313DF00831203134908831669
:100A18000313DE0083120313480883160313DD0053
:100A28000130E1070318E20A0030E2076208803A61
:100A3800FF0080307F02031D232DFF306102031C5D
:100A4800262D272D322D7F3083160313E0008030AA
:100A5800DF000030DE000030DD006F2D8316031349
:100A68006208803AFF0080307F02031D3D2D01306F
:100A780061020318402D412D4D2D003083160313BC
:100A8800E0000030DF000030DE000030DD00D6017D
:100A98006F2D83160313610883120313C8004808D7
:100AA80083160313DC00FF30DD05FF30DE057F30E1
:100AB800DF050030E0055C1C622D632D642DDF1717
:100AC8005C0883120313C8000310480CC9004908C6
:100AD80083160313E000560883120313C80048085E
:100AE80083160313E004600883120313C3008316FC
:100AF80003135F0883120313C200831603135E08EF
:100B080083120313C100831603135D0883120313B2
:100B1800C000080083120313BA003A080319952D80
:100B2800962DAA2DB51F992D9A2DAA2D3209BC00F4
:100B38003309BD003409BE003509BF00BC0A0319DA
:100B4800BD0A0319BE0A0319BF0AB22D3508BF0032
:100B58003408BE003308BD003208BC003508340430
:100B680033043204031DB92DBA2DC32D0030B5004E
:100B78000030B4000030B3000030B200492E963087
:100B8800B6003608BB00D52D0130B6003608BB07C5
:100B980001300310BF0CBE0CBD0CBC0CFF3E031D86
:100BA800CD2DFE303F05031DDA2DDB2DC82DF72D89
:100BB8000130B6003608BB070130BC070030031807
:100BC8000130BD07003003180130BE07003003189C
:100BD8000130BF0701300310BF0CBE0CBD0CBC0CAC
:100BE800FF3E031DEF2DFF303F05031DFC2DFD2D9E
:100BF800DC2D092E0130BB020130B6000310BC0DFC
:100C0800BD0DBE0DBF0DB60B022EBE1B0C2E0D2E3C
:100C1800132E02303B020318122E132EFE2D3B1802
:100C2800162E172E1F2EFF30BC05FF30BD057F3056
:100C3800BE05FF30BF050310BB0C3B08B600B7016B
:100C4800B801B90118300310B60DB70DB80DB90DBC
:100C5800FF3E031D272E3608BC043708BD0438089C
:100C6800BE043908BF043A0803193B2E3C2E412E16
:100C7800B51F3F2E402E412EBF173F08B5003E0836
:100C8800B4003D08B3003C08B20008008312031307
:100C98003D08C2003C08C1003F08B3003E08B2004E
:100CA8004208B5004108B4000A128A1590200A12B9
:100CB8008A11831203133308C2003208C1000130BD
:100CC800BA070318BB0A0030BB0741084204031DDA
:100CD8006E2E6F2E502E3A08840083173B1C831308
:100CE80080010130BA020030031CBB03BB023F087D
:100CF800B3003E08B2003D08B5003C08B4000A162F
:100D08008A1181270A128A11831203133208C0003C
:100D18004008C3003F08B3003E08B2003D08B500D4
:100D28003C08B4000A128A1590200A128A1183120C
:100D380003133308BD003208BC000A304302031C09
:100D4800A62EA72EAB2E0730C0004008C3073030B0
:100D5800C0004008C3074308C0003A08840083174E
:100D68003B1C8313400880000130BA020030031C8A
:100D7800BB03BB023C083D04031DC32EC42E7B2EBF
:100D88000130BA070318BB0A0030BB0708007B080C
:100D980083120313A2007A08A1007D08F1007C08E1
:100DA800F0002208F3002108F2000A128A154C20EC
:100DB8000A128A11710883120313A2007008A10095
:100DC8000130F8070318F90A0030F907210822044E
:100DD800031DEF2EF02ED12E780884008317791C7E
:100DE800831380010130F8020030031CF903F90273
:100DF8007D08F1007C08F0007B08F3007A08F20017
:100E08000A168A1147270A128A11700883120313D7
:100E1800A0002008A3007D08F1007C08F0007B08F2
:100E2800F3007A08F2000A128A154C200A128A1175
:100E38007108FB007008FA000A30831203132302BA
:100E4800031C272F282F2C2F0730A0002008A307CA
:100E58003030A0002008A3072308A00078088400E9
:100E68008317791C8313200880000130F8020030B2
:100E7800031CF903F9027A087B04031D442F452F4C
:100E8800FC2E0130F8070318F90A0030F9070800AA
:100E9800031083160313650D660DE7006708ED0060
:100EA8006D08031D582F592F622F0030E6000030BF
:100EB800E5000030E4000030E300C72F6308E700D6
:100EC8006408E8006508E9006608EA001F300310B6
:100ED800EA0CE90CE80CE70CFF3E031D6B2F6708D2
:100EE800EB006B08EC00E517FF30E305FF30E40585
:100EF800FF30E5050030E6059630ED02ED1F852F41
:100F0800862FA02F6D08803A973E03188C2F8D2FBF
:100F18008E2F592F01300310E60CE50CE40CE30C7E
:100F2800FF3E031D8F2F0130E7006708ED07031D03
:100F38009E2F9F2F8E2FB72F20306D02031CA52FB9
:100F4800A62FB22F592F0130E7000310E30DE40D4F
:100F5800E50DE60DE70BA92F0130ED026D08031D25
:100F6800B62FB72FA72F6C080319BB2FBC2FC72F7D
:100F7800E309E409E509E609E30A0319E40A0319A0
:100F8800E50A0319E60A08008C1ECB2FCC2FF22F96
:100F98001A08AD00AE012D08F0002E08F1000A165F
:100FA8008A11D7250A128A11710883120313DA00ED
:100FB8007008D900A130A4000130A5005A08A70084
:100FC8005908A6000A30A8000030A9000A168A119C
:100FD800EF260A128A11831203138C1231088A0031
:0E0FE800300884002F0E8300FE0E7E0E0900DE
:1010020064008001840A04060319003404060228DD
:1010120083120313B400FF3088008030B20032081C
:101022008805091089140911273083120313B300AC
:10103200F430B200B20B1B28B30B1B280000831242
:101042000313091580300806031D2828292838288B
:101052000911273083120313B300F430B200B20B2C
:101062003028B30B3028000083120313091534080B
:101072008800091489100915273083120313B3005D
:10108200F430B200B20B4328B30B432800008312A2
:10109200031309110800F501F60170087104031920
:1010A200532854288B28F701F70A622801300310CD
:1010B200F00DF10DFF3E031D58280130F4007408B5
:1010C200F707F11F65286628572801300310F50D30
:1010D200F60DFF3E031D672871087302031D732876
:1010E20070087202031C762877287E287008F202A4
:1010F2007108031CF303F302751401300310F10CA1
:10110200F00CFF3E031D7F280130F702031D8A28E1
:101112008B2866287608F1007508F0000800831213
:101122000313B701B80132083304031999289A2826
:10113200D128B901B90AA82801300310B20DB30DA4
:10114200FF3E031D9E280130B6003608B907B31FC3
:10115200AB28AC289D2801300310B70DB80DFF3E17
:10116200031DAD2833083502031DB92832083402A5
:10117200031CBC28BD28C4283208B4023308031C4F
:10118200B503B502371401300310B30CB20CFF3EA5
:10119200031DC5280130B902031DD028D128AC286F
:1011A2003808B3003708B200080083120313C101E4
:1011B200BE1FDC28DD28E428BD09BE09BD0A0319CB
:1011C200BE0AC101C10ABC1FE728E828ED28BB09F5
:1011D200BC09BB0A0319BC0A3B083C040319F228E8
:1011E200F3282229C001C00A012901300310BB0DD6
:1011F200BC0DFF3E031DF7280130BF003F08C007AA
:10120200BC1F04290529F6283C083E02031D0B29B0
:101212003B083D02031C0E290F2915293B08BD027C
:101222003C08031CBE03BE0201300310BC0CBB0C05
:10123200FF3E031D16290130C002031D2129222968
:10124200052941080319262927292C29BD09BE0988
:10125200BD0A0319BE0A3E08BC003D08BB000800D7
:1012620083120313B801B31F372938293F29B20962
:10127200B309B20A0319B30AB801B80AB51F422961
:1012820043294C29B409B509B40A0319B50A013036
:10129200B6003608B806B901BA0132083304031998
:1012A200532954298B29B701B70A62290130031047
:1012B200B20DB30DFF3E031D58290130B6003608AA
:1012C200B707B31F65296629572901300310B90DE5
:1012D200BA0DFF3E031D672933083502031D73292A
:1012E20032083402031C762977297E293208B40297
:1012F2003308031CB503B502391401300310B30CD3
:10130200B20CFF3E031D7F290130B702031D8A295B
:101312008B296629380803198F2990299529B9093B
:10132200BA09B90A0319BA0A3A08B3003908B2006D
:101332000800831603136A088039EB006B088316D2
:1013420003179400831603136A08EB006B07EC0083
:101352006C08831603179B0083160313E91FB22937
:10136200B329B629831603171B14831603171B0808
:101372000319BC29BD29D0291B0A031DC129C22971
:10138200CC29003083160313EA000030E900003054
:10139200E8000030E7000313E917EA01DA29003018
:1013A20083160313EA000030E9000030E800003041
:1013B200E70066088039EB006B0883160317940672
:1013C200831603136608EB006B07EC006C088316A8
:1013D20003179C0083160313E51FF029F129F42952
:1013E200831603171C14831603171C080319FA2902
:1013F200FB290E2A1C0A031DFF29002A0A2A003093
:1014020083160313E6000030E5000030E4000030EC
:10141200E3000313E517E601182A003083160313CD
:10142200E6000030E5000030E4000030E30066082A
:10143200650464046304031D1F2A202A3D2A003028
:10144200EA000030E9000030E8000030E7008030B8
:10145200E9047F30EA048316031714088316031382
:10146200EB006B08EA046A08E6006908E500680810
:10147200E4006708E300392C831603171B08031DD9
:10148200432A442A4F2A003083160313E600003011
:10149200E5000030E4000030E300392C1B0883161D
:1014A2000313EB00EC016C08EE00831603171C0813
:1014B200831603136B02ED00031CEE036D087F3EDF
:1014C200831603179500831603136E080318013E53
:1014D200003E831603179600831603136A088316C9
:1014E20003179300831603136908831603179200E8
:1014F20083160313680883160317910083160313D8
:101502006708831603179000003083160313EA005E
:101512000030E9000030E8000030E70000308316B8
:1015220003179A00003099000030980000309700AD
:101532009C01212B1C0803199F2AA02ACF2A0130C3
:1015420083160313EB00031083160317900D910DFE
:10155200920D930D83160313EB0BA42A0130EB00BB
:101562000310E70DE80DE90DEA0DEB0BB12A831626
:1015720003179A1FBD2ABE2AC12A831603136714B2
:1015820001300313EB00031083160317970D980D18
:10159200990D9A0D83160313EB0BC42A03136608E5
:1015A200831603171302031DEC2A8316031365081F
:1015B200831603171202031DEC2A83160313640811
:1015C200831603171102031DEC2A83160313630803
:1015D200831603171002031CEF2AF02A192B1A177D
:1015E20083160313630883160317900283160313EB
:1015F2006408031C640FFE2A012B83160317910251
:10160200831603136508031C650F082B0B2B831627
:1016120003179202831603136608031C660F122B2C
:10162200152B8316031793028316031383160317CE
:10163200013083160313EB006B08831603179C0714
:101642001A301C02031C262B272B9B2A1308120478
:101652001104100403192E2B2F2B592B1714592B5D
:101662000130EB000310E70DE80DE90DEA0DEB0B7D
:10167200332B831603179A1F3F2B402B432B8316C2
:101682000313671401300313EB00031083160317CF
:10169200970D980D990D9A0D83160313EB0B462B9C
:1016A200FF308316031795070318960AFF30960733
:1016B20083160313E91F5E2B5F2B312B831603174F
:1016C2009C019A1F652B662B922BFF301705831600
:1016D2000313EB00FF308316031718058316031359
:1016E200EC00FF3083160317190583160313ED0070
:1016F2007F30831603171A0583160313EE006E0854
:101702006D046C046B040319872B882B8D2B8316B5
:1017120003179C019C0A922B671C902B912B922BF6
:10172200882B831603171C080319982B992BCE2B91
:10173200013083160313E707003003180130E8076E
:10174200003003180130E907003003180130EA07BE
:101752006A1CAC2BAD2BCE2B6708EB006808EC00A3
:101762006908ED006A08EE000130EF006E0DEE0C24
:10177200ED0CEC0CEB0CEF0BB72B6E08EA006D08CE
:10178200E9006C08E8006B08E700013083160317D4
:1017920095070318960A0030960783160317160852
:1017A200803AFF0080307F02031DD92BFF301502E3
:1017B200031CDC2BDD2BED2BFF308316031795006A
:1017C20000309600003083160313EA000030E9006F
:1017D2000030E8000030E700831603171608803A4D
:1017E200FF0080307F02031DF82B01301502031821
:1017F200FB2BFC2B0D2C8316031795019601003051
:1018020083160313EA000030E9000030E8000030DC
:10181200E70083160317940183160317150883162E
:101822000313EB006B08831603179B001B1C1A2C77
:101832001B2C1F2C83160313E917252C7F308316CC
:101842000313EB006B08E905831603171B088316C5
:101852000313EB0003106B0CEC006C08EA00831618
:101862000317140883160313EB006B08EA04342AE7
:1018720008000A168A1113260A128A150A168A11F4
:1018820031260A128A150A168A1100260A128A15A8
:101892000A168A11E2250A128A15013083120313ED
:1018A200B5008030B6000A168A1173260A128A150C
:1018B200C730831603179D005E2C9D0B5D2C612C97
:1018C200003083120313B200B3000030B400B5003D
:1018D2000A168A11ED250A128A15831603179D002E
:1018E2001D0883120313DC00433083160313E60042
:1018F2007F30E5000030E4000030E3004030831226
:101902000313C300A030C2000030C1000030C00089
:101912005C08831603179D009E019F01A001200809
:1019220083120313B500831603171F0883120313D0
:10193200B400831603171E0883120313B300831621
:1019420003171D0883120313B20001300A128A1111
:101952008E250A128A15831203133508C70034082C
:10196200C6003308C5003208C4000A128A112F20AB
:101972000A128A1583120313430883160313EA001B
:1019820083120313420883160313E900831203131D
:10199200410883160313E8008312031340088316D9
:1019A2000313E7000A128A159A210A128A1583166E
:1019B20003136608A7006508A6006408A50063086B
:1019C200A400270883120313C700831603132608F3
:1019D20083120313C600831603132508831203130D
:1019E200C50083160313240883120313C400423074
:1019F200C300C830C2000030C1000030C0000A126B
:101A02008A112F200A128A158312031343088316A0
:101A12000313E60083120313420883160313E5003F
:101A220083120313410883160313E4008312031382
:101A3200400883160313E3000A128A114C270A1284
:101A42008A1583160313640883120313D6008316C0
:101A52000313630883120313D5000A30BB0000305E
:101A6200BC005608BE005508BD000A128A15D620D1
:101A72000A128A15831203133C08D4003B08D300D0
:101A8200D130C4000030C5005408C7005308C60056
:101A92000A30C8000030C9000A168A111B270A1230
:101AA2008A150A3083120313BB000030BC000A30CF
:101AB200B2000030B3005608B5005508B4000A124F
:101AC2008A1531210A128A15831203133308BE00C4
:101AD2003208BD000A128A15D6200A128A1583120C
:101AE20003133C08D2003B08D100CC30C4000030C4
:101AF200C5005208C7005108C6000A30C8000030AD
:101B0200C9000A168A111B270A128A150A30831283
:101B12000313BB000030BC006430B2000030B300DD
:101B22005608B5005508B4000A128A1531210A1266
:101B32008A15831203133308BE003208BD000A124D
:101B42008A15D6200A128A15831203133C08D00084
:101B52003B08CF00C730C4000030C5005008C700A2
:101B62004F08C6000A30C8000030C9000A168A11A0
:101B72001B270A128A151230831603179D001D08AF
:101B820083120313B200C2300A168A1150260A12B7
:101B92008A15D130831603179D001D088312031383
:101BA200B200CC300A168A11C4260A128A15CC3029
:101BB200831603179D001D0883120313B200C2305F
:101BC2000A168A11C4260A128A15C230831603170E
:101BD2009D001D0883120313B200C7300A168A1132
:101BE200C4260A128A15C730831603179D009D0B5F
:101BF200F82D013083120313B2000030B30001301C
:101C0200B4000030B5000A168A11ED250A128A15B1
:101C1200831603179D001D0883120313DC00433053
:101C220083160313E6007F30E5000030E400003045
:101C3200E300403083120313C300A030C20000301F
:101C4200C1000030C0005C08831603179D009E018E
:101C52009F01A001200883120313B5008316031706
:101C62001F0883120313B400831603171E0883127E
:101C72000313B300831603171D0883120313B20064
:101C820001300A128A118E250A128A158312031351
:101C92003508C7003408C6003308C5003208C4003E
:101CA2000A128A112F200A128A158312031343087B
:101CB20083160313EA0083120313420883160313E5
:101CC200E90083120313410883160313E800831209
:101CD2000313400883160313E7000A128A159A2198
:101CE2000A128A15831603136608A3006508A20068
:101CF2006408A1006308A000230883120313C7002D
:101D020083160313220883120313C60083160313D8
:101D1200210883120313C5008316031320088312BC
:101D22000313C4004230C300C830C2000030C100F7
:101D32000030C0000A128A112F200A128A1583125B
:101D42000313430883160313E600831203134208A6
:101D520083160313E500831203134108831603134A
:101D6200E40083120313400883160313E3000A12EC
:101D72008A114C270A128A158316031364088312E8
:101D82000313CE0083160313630883120313CD00DB
:101D92000A30BB000030BC004E08BE004D08BD003A
:101DA2000A128A15D6200A128A15831203133C08D6
:101DB20083160313AD00831203133B088316031328
:101DC200AC00BD3083120313C4000030C50083167B
:101DD20003132D0883120313C700831603132C0861
:101DE20083120313C6000A30C8000030C9000A1665
:101DF2008A111B270A128A150A3083120313BB00A9
:101E02000030BC000A30B2000030B3004E08B5000A
:101E12004D08B4000A128A1531210A128A1583125A
:101E220003133308BE003208BD000A128A15D620F9
:101E32000A128A15831203133C0883160313AB009C
:101E4200831203133B0883160313AA00B8308312CC
:101E52000313C4000030C500831603132B0883123A
:101E62000313C700831603132A0883120313C60041
:101E72000A30C8000030C9000A168A111B270A124C
:101E82008A150A3083120313BB000030BC00643091
:101E9200B2000030B3004E08B5004D08B4000A127B
:101EA2008A1531210A128A15831203133308BE00E0
:101EB2003208BD000A128A15D6200A128A15831228
:101EC20003133C0883160313A900831203133B0870
:101ED20083160313A800B33083120313C400003027
:101EE200C50083160313290883120313C700831640
:101EF2000313280883120313C6000A30C8000030F7
:101F0200C9000A168A111B270A128A151230831673
:101F120003179D001D0883120313B200AE300A1688
:101F22008A1150260A128A15BD30831603179D00A6
:101F32001D0883120313B200B8300A168A11C42690
:101F42000A128A15B830831603179D001D088312E2
:101F52000313B200AE300A168A11C4260A128A1579
:101F6200AE30831603179D001D0883120313B200BF
:101F7200B3300A168A11C4260A128A15C0300A160C
:101F82008A11BD270A128A15C73083120313B500BE
:101F92000030B6000A168A1173260A128A1510300A
:101FA20083120313B5008030B6000A168A11732615
:101FB2000A128A15B33083120313B5000030B6003B
:101FC2000A168A1173260A128A1510308312031315
:101FD200B5008030B6000A168A1173260A128A15D5
:101FE200A13083120313B5000130B6000A168A111C
:101FF20073260A128A153F2C0A128A111028FF1B17
:102002000A2883137F1883170008840A0319FF0A1A
:10201200080010308A000408840A8207003453340E
:1020220031342034203420342034533432342034B8
:1020320020342034203453343334203420340034D8
:042042002E34003404
:102BAE00710883120313D8007008D7005808F1007B
:102BBE005708F0000800831203131F179F131F14EA
:102BCE00831603139F131F129F1208008312031301
:102BDE00320C031C1F1103181F15340C031C9F11FC
:102BEE0003189F151F129F121F149F140C131E08FB
:102BFE000800193083160313990018159816181229
:102C0E001813831203131816981718138316031329
:102C1E008C160B178B1708000930831603178800C4
:102C2E008901093083160313850086018801890105
:102C3E00831203138501860187018801890183169A
:102C4E0003130F088F3960388F008F110F118F10FB
:102C5E000F14080038300A168A11BD270A168A1179
:102C6E000C300A168A11BD270A168A1101300A166F
:102C7E008A11BD270A168A1106300A168A11BD2737
:102C8E000A168A1180300A168A11BD270A168A1171
:102C9E00080083120313B5003508B3003308B400DF
:102CAE00602E0130B3003308B4070130B30033088F
:102CBE00B207320884000A168A110A200A168A11EF
:102CCE00B300340884003308831380000008031D0A
:102CDE00712E722E582E08008A2E3608FF003508E7
:102CEE0084000A168A1100200A168A110A128A1501
:102CFE0009200A168A11013083120313B50703182F
:102D0E00B60A0030B607831203133608FF003508E3
:102D1E0084000A168A1100200A168A11003A031D31
:102D2E00992E9A2E742E080083120313BA00B60140
:102D3E00B7013208B400B5013408B8003508B9003F
:102D4E003A1CAA2EAB2EB12E3808B6070318B70AB6
:102D5E003908B70701300310B80DB90DFF3E031D3A
:102D6E00B22E0310BA0C3A08031DBE2EBF2EA72E8C
:102D7E003708B3003608B200080083120313B500FB
:102D8E003508B3003308B400D02E0130B300330839
:102D9E00B4073408840083130008031DD72ED82EE1
:102DAE00CC2EE12E0130B3003308B4070130B3004E
:102DBE003308B207320884000008B30034088400D8
:102DCE00330880000008031DED2EEE2ED92E0800CC
:102DDE0083120313A71FF42EF52E092F2D30AA00F0
:102DEE00240884008317251C83132A0880000130D1
:102DFE00A4070318A50A0030A507A609A709A60A65
:102E0E000319A70A2408F8002508F9002708FB0073
:102E1E002608FA002908FD002808FC000A128A116B
:102E2E00CB260A168A11080083120313C71F202F00
:102E3E00212F352F2D30CA00440884008317451CDE
:102E4E0083134A0880000130C4070318C50A0030F6
:102E5E00C507C609C709C60A0319C70A4408BA0036
:102E6E004508BB004708BD004608BC004908BF0026
:102E7E004808BE000A128A114A260A168A1108004C
:102E8E007008710403194C2F4D2F7C2FF501F50A94
:102E9E005B2F01300310F00DF10DFF3E031D512F7E
:102EAE000130F4007408F507F11F5E2F5F2F502FCD
:102EBE0071087302031D652F70087202031C682FC0
:102ECE00692F6F2F7008F2027108031CF303F302CF
:102EDE0001300310F10CF00CFF3E031D702F01307A
:102EEE00F502031D7B2F7C2F5F2F7308F1007208F4
:102EFE00F000080083120313320833040319882FDD
:102F0E00892FB82FB701B70A972F01300310B20DD2
:102F1E00B30DFF3E031D8D2F0130B6003608B707E7
:102F2E00B31F9A2F9B2F8C2F33083502031DA12F11
:102F3E0032083402031CA42FA52FAB2F3208B40283
:102F4E003308031CB503B50201300310B30CB20CE9
:102F5E00FF3E031DAC2F0130B702031DB72FB82F54
:102F6E009B2F3508B3003408B200080083120313F8
:102F7E00B400FF3088008030B20032088805091096
:102F8E0089140911273083120313B300F430B200F1
:102F9E00B20BCF2FB30BCF2F0000831203130915E3
:102FAE0080300806031DDC2FDD2FEC2F0911273092
:102FBE0083120313B300F430B200B20BE42FB30B41
:102FCE00E42F00008312031309153408880009103A
:102FDE0089100915273083120313B300F430B200A1
:102FEE00B20BF72FB30BF72F000083120313091147
:022FFE000800C9
:04400E00D420FF3F7C
:00000001FF
