:020000040000FA
:100000000A128A11FC2F00308A000408840A820731
:1000100000347734773477342E3465346C34653477
:100020006334743472346F3453346F346D346534E4
:100030002E3463346F346D3400344C3443344434E0
:1000400020344C346934623472346134723479341B
:10005000203466346F34723400344434653476347A
:1000600065346C346F347034653464342034423415
:100070007934003465346C346534633474347234E8
:100080006F3453346F346D34653400344D34503430
:100090004C344134423420345834433438340034FE
:100BAE0001300A128A11EC250A128A110800183037
:100BBE000A128A11EC250A128A1108001C300A1238
:100BCE008A11EC250A128A110800F300831203130E
:100BDE00091073080A128A1186260A128A118312C4
:100BEE00031389140B30F2006230F100F10BFD2D6E
:100BFE00F20BFD2D00008312031389100800F20082
:100C0E007208F1007108F3008312031309147308BC
:100C1E000A128A1186260A128A1183120313891464
:100C2E001A30F100F10B192E0000831203138910F4
:100C3E0008008316031788018901831603138601A2
:100C4E008312031386018316031387018312031382
:100C5E0087018316031388018312031388018316F9
:100C6E00031389018312031389010800F60076032A
:100C7E00031D422E432E4F2E74087F3EF50075083D
:100C8E00F70077080A128A11EC250A128A11602ED3
:100C9E0002307606031D542E552E602E7408BF3E6C
:100CAE00F5007508F70077080A128A11EC250A126A
:100CBE008A110800F600F401F501782E7408760703
:100CCE0084000A128A1103200A128A110A128A114A
:100CDE0006260A128A110130F4070318F50A0030AD
:100CEE00F5077408760784000A128A1103200A1287
:100CFE008A11003A031D842E852E652E0800F00001
:100D0E00701C8A2E8B2E8F2E831203130814922E94
:100D1E00831203130810F01C952E962E982E88140D
:100D2E00992E8810701D9C2E9D2E9F2E0815A02E7C
:100D3E000811F01DA32EA42EA62E8815A72E8811FD
:100D4E00701EAA2EAB2EAD2E0816AE2E0812F01E59
:100D5E00B12EB22EB42E8816B52E8812701FB82E54
:100D6E00B92EBB2E0817BC2E0813F01FBF2EC02E97
:100D7E00C22E8817C32E8813080000300A128A115B
:100D8E0086260A128A113430F500F130F400F40B85
:100D9E00CE2EF50BCE2ED32E30300A128A11EC2524
:100DAE000A128A110D30F500FB30F400F40BDD2E23
:100DBE00F50BDD2EE22E30300A128A11EC250A12C6
:100DCE008A111D30F5009130F400F40BEC2EF50B6A
:100DDE00EC2E30300A128A11EC250A128A113830A4
:100DEE000A128A11EC250A128A1108300A128A1187
:100DFE00EC250A128A1101300A128A11EC250A1208
:100E0E008A1106300A128A11EC250A128A1108007C
:100E1E000A128A1120260A128A11831603138901D7
:100E2E0088010A128A11C4260A128A110A128A111C
:100E3E00D7250A128A11F401F40A01300A128A1116
:100E4E003D260A128A1115300A128A1161260A12DB
:100E5E008A11F401F40A02300A128A113D260A128E
:100E6E008A113E300A128A1161260A128A11153031
:100E7E00FA004B30F900BE30F800F80B442FF90B96
:100E8E00442FFA0B442F00000A128A11D7250A129A
:100E9E008A11F401F40A01300A128A113D260A124F
:100EAE008A1125300A128A1161260A128A11F4015A
:100EBE00F40A02300A128A113D260A128A113230C1
:100ECE000A128A1161260A128A111530FA004B3065
:100EDE00F900BE30F800F80B722FF90B722FFA0BD7
:100EEE00722F00000A128A11D7250A128A11F401F4
:100EFE00F40A01300A128A113D260A128A110130B3
:100F0E000A128A1161260A128A11FB01FC010430B1
:100F1E00FA000C30F9003330F800F80B942FF90B6F
:100F2E00942FFA0B942F9B2F0A128A11DE250A1288
:100F3E008A110130FB070318FC0A0030FC07003051
:100F4E007C020F3003197B02031CAE2FAF2F8E2FA6
:100F5E00FB01FC010430FA000C30F9003330F800CC
:100F6E00F80BB72FF90BB72FFA0BB72FBE2F0A12AC
:100F7E008A11E5250A128A110130FB070318FC0AB3
:100F8E000030FC0700307C020F3003197B02031C7B
:100F9E00D12FD22FB12F0A128A11D7250A128A11F8
:100FAE00F401F40A02300A128A113D260A128A113D
:100FBE0065300A128A1106260A128A1153300A1255
:100FCE008A1106260A128A111530FA004B30F900E2
:100FDE00BE30F800F80BF12FF90BF12FFA0BF12FB1
:100FEE0000001D2F0A128A11002883010A128A118D
:020FFE000F2FB3
:04400E00D620FF3F7A
:00000001FF
