:020000040000FA
:060000000A128A1110280B
:10000800FE00030E83120313AD000408AE000A08B5
:10001800AF000A128A118B2A0A128A111328831236
:100028000313C901CA01CB01CC01CD01CE01CF0117
:10003800D00183010A128A11A2287B0883120313B4
:10004800A2007A08A1007D08F1007C08F0002208CF
:10005800F3002108F2000A128A11D3210A128A1128
:10006800710883120313A2007008A1000130F80779
:100078000318F90A0030F90721082204031D45284E
:1000880046282728780884008317791C8313800161
:100098000130F8020030031CF903F9027D08F10071
:1000A8007C08F0007B08F3007A08F2000A128A1133
:1000B80051220A128A11700883120313A000200823
:1000C800A3007D08F1007C08F0007B08F3007A08A3
:1000D800F2000A128A11D3210A128A117108FB0050
:1000E8007008FA000A30831203132302031C7D28C8
:1000F8007E2882280730A0002008A3073030A000FF
:100108002008A3072308A000780884008317791C17
:100118008313200880000130F8020030031CF90323
:10012800F9027A087B04031D9A289B28522801307B
:10013800F8070318F90A0030F90708000A128A11AB
:1001480032230A128A11003083120313C1000130CE
:10015800C0008630BF00A030BE000A128A111722E4
:100168000A128A1107300A128A1175210A128A1195
:100178000A128A111F230A128A11831203134F08C5
:10018800031DC728C828CB2808178813CD280813AB
:1001980088170A128A1170230A128A1100308312F2
:1001A8000313B000B1000A128A11C1220A128A117F
:1001B800831203133108CE003008CD000A128A11C9
:1001C80067230A128A11033083120313C800083008
:1001D800C7007630C600C60BEF28C70BEF28C80B40
:1001E800EF280000831203134D080A128A114123D5
:1001F8000A128A111A3083120313C700F730C60097
:10020800C60B0429C70B04290929C1280A128A1117
:100218001028003083120313BC000030BB000030EC
:10022800BA000030B900330832043104300403192D
:100238001E291F296C29BD01BD0A2F290130B800CC
:100248000310B00DB10DB20DB30DB80B2429013058
:10025800B8003808BD07B31F3229332922290130D5
:10026800B8000310B90DBA0DBB0DBC0DB80B35297C
:1002780033083702031D4A2932083602031D4A296A
:1002880031083502031D4A2930083402031C4D2960
:100298004E295D293008B4023108031C310FB5021C
:1002A8003208031C320FB6023308031C330FB7029F
:1002B800391401300310B30CB20CB10CB00CFF3E72
:1002C800031D5E290130BD02031D6B296C293329EA
:1002D8003C08B3003B08B2003A08B1003908B00046
:1002E800080083120313B200AF29831603130F12F9
:1002F8008F120F13D129831603130F168F120F13A2
:10030800D129831603130F128F160F13D1298316C1
:1003180003130F168F160F13D129831603130F1209
:100328008F120F17D129831603130F168F120F1769
:10033800D129831603130F128F160F17D12983168D
:1003480003130F168F160F17D129831603130F12D5
:100358008F160F17D1293208B000B1013108003AC1
:100368000319B729A9293008003A03197929013A4C
:1003780003197F29033A03198529013A03198B299F
:10038800073A03199129013A03199729033A0319DE
:100398009D29013A0319A329A9290F140800F50179
:1003A800F601700871040319DA29DB29122AF7010A
:1003B800F70AE92901300310F00DF10DFF3E031D86
:1003C800DF290130F4007408F707F11FEC29ED2943
:1003D800DE2901300310F50DF60DFF3E031DEE2951
:1003E80071087302031DFA2970087202031CFD29A3
:1003F800FE29052A7008F2027108031CF303F302B0
:10040800751401300310F10CF00CFF3E031D062A91
:100418000130F702031D112A122AED297608F1008E
:100428007508F0000800283083120313940083161F
:1004380003139101831203133E08C2003F08C3004F
:100448004008C4004108C50003300310C20DC30DA5
:10045800C40DC50DFF3E031D292A4508B3004408F5
:10046800B2004308B1004208B0000030B7007A304B
:10047800B6001230B5000030B4000A128A110D21FE
:100488000A128A11831203133008FF3E83160313DE
:100498009300940187150716080070087104031962
:1004A800562A572A862AF501F50A652A01300310CB
:1004B800F00DF10DFF3E031D5B2A0130F4007408B6
:1004C800F507F11F682A692A5A2A71087302031D61
:1004D8006F2A70087202031C722A732A792A70081C
:1004E800F2027108031CF303F30201300310F10C4C
:1004F800F00CFF3E031D7A2A0130F502031D852A00
:10050800862A692A7308F1007208F00008008C1E18
:100518008E2A8F2AB82A1A08AB00AC012B08F000E3
:100528002C08F1000A128A115C230A128A11710838
:1005380083120313CC007008CB004F08AB00AC014A
:100548002B08A4002C08A5004C08A7004B08A600FF
:100558000A30A8000030A9000A128A11F3220A12F0
:100568008A11831203138C122F088A002E08840024
:100578002D0E8300FE0E7E0E09000A128A114F23EB
:100588000A128A118316031391150A128A114F232E
:100598000A128A11831203131308B200B301320836
:1005A800B4003308B5000A128A114F230A128A11BF
:1005B8008312031330033104031DE32AE42AE82AD3
:1005C800831603139112EB2A83160313911611163F
:1005D800831203133508B1003408B00008008312F1
:1005E8000313A71FF82AF92A0D2B2D30AA00240877
:1005F80084008317251C83132A0880000130A40770
:100608000318A50A0030A507A609A709A60A031911
:10061800A70A2408F8002508F9002708FB0026087F
:10062800FA002908FD002808FC000A128A11212076
:100638000A128A1108001930831603139900181535
:1006480098161812181383120313181698171813EC
:10065800831603138C160B178B17080083160313C6
:1006680085018601870188018901831203138501A9
:100678008601870188018901080083120313B000ED
:1006880083160313981C492B4A2B442B83120313FC
:10069800300899000800831603131419542B552B9E
:1006A8004F2B11081F39031D5A2B5B2B4F2B0800AA
:1006B800710883120313CA007008C9004A08F100C0
:1006C8004908F00008000A128A114F230A128A11F9
:1006D80083160313111508000A128A114F230A12F0
:0A06E8008A11831603131114080091
:04400E00D420FF3F7C
:00000001FF
