:020000040000FA
:060000000A128A11F72F1D
:100BF600831203138C1E002E012EFB2D1A080800EB
:100C06000A128A1121260A128A1183160313111455
:100C160008000A128A1121260A128A118316031362
:100C260011150800F00083160313981C1B2E1C2EAA
:100C3600162E7008831203139900080083160313F7
:100C46001419262E272E212E11081F39031D2C2E8E
:100C56002D2E212E080083160313850186011830D8
:100C660087008801890183120313850186018701A4
:100C76008801890108001930831603139900181595
:100C860098161812181383120313181698171813A8
:100C9600831603138C160B178B1708000A128A117A
:100CA60021260A128A118316031391150A128A1134
:100CB60021260A128A11831203131308F200F30184
:100CC6007208F4007308F5000A128A1121260A1226
:100CD6008A1170037104031D712E722E762E8316EF
:100CE60003139112792E83160313911611167508A4
:100CF600F1007408F00008002830831203139400F2
:100D0600831603139101831203132008A4002108FC
:100D1600A5002208A6002308A70002300310A40D90
:100D2600A50DA60DA70DFF3E031D912E2708F30066
:100D36002608F2002508F1002408F0000030F7002C
:100D46007A30F6001230F5000030F4000A128A11EB
:100D560013270A128A117008FF3E831603139300A5
:100D66009401871507160800F200EF2E8316031369
:100D76000F128F120F13112F831603130F168F12D4
:100D86000F13112F831603130F128F160F13112F24
:100D9600831603130F168F160F13112F83160313C3
:100DA6000F128F120F17112F831603130F168F12A0
:100DB6000F17112F831603130F128F160F17112FEC
:100DC600831603130F168F160F17112F831603138F
:100DD6000F128F160F17112F7208F000F10171080C
:100DE600003A0319F72EE92E7008003A0319B92EB6
:100DF600013A0319BF2E033A0319C52E013A031906
:100E0600CB2E073A0319D12E013A0319D72E033AEE
:100E16000319DD2E013A0319E32EE92E0F140800FB
:100E26000030FC000030FB000030FA000030F90012
:100E360073087204710470040319222F232F702F74
:100E4600FD01FD0A332F0130F8000310F00DF10DFE
:100E5600F20DF30DF80B282F0130F8007808FD0786
:100E6600F31F362F372F262F0130F8000310F90D08
:100E7600FA0DFB0DFC0DF80B392F73087702031DD5
:100E86004E2F72087602031D4E2F71087502031D40
:100E96004E2F70087402031C512F522F612F7008B9
:100EA600F4027108031C710FF5027208031C720F1D
:100EB600F6027308031C730FF7027914013003104E
:100EC600F30CF20CF10CF00CFF3E031D622F013007
:100ED600FD02031D6F2F702F372F7C08F3007B0850
:100EE600F2007A08F1007908F00008000A128A1167
:100EF6002E260A128A11003083120313A300013032
:100F0600A2008630A100A030A0000A128A117F2616
:100F16000A128A1106300A128A11B7260A128A1193
:100F26000A128A113E260A128A110A128A11032609
:100F36000A128A110030F000F1000A128A115126B5
:100F46000A128A11710883120313AC007008AB00F1
:100F56000A128A110C260A128A110330831203130D
:100F6600AA000830A9007630A800A80BB82FA90B54
:100F7600B82FAA0BB82F0000831203132B080A12EE
:100F86008A1115260A128A111A3083120313A90030
:100F9600F730A800A80BCD2FA90BCD2FD22F0A1200
:100FA6008A11FB250A128A1183120313A800280846
:100FB600AD001A3083120313A900F730A800A80B5E
:100FC600E22FA90BE22FE72F831203132D03031D34
:100FD600ED2FEE2FF12F06148610982F061086148B
:100FE600982F0A128A11002883120313AB01AC0151
:0A0FF600AD0183010A128A11792F60
:04400E00D420FF3F7C
:00000001FF
