:020000040000FA
:060000000A128A110C280F
:10000800FE00030EF2000A08F3000A128A15582DA2
:100018000A128A110F28F601F701F801F901831372
:10002800623084006D300A128A150A250A128A1174
:10003800A0308400B4300A128A150A250A128A11DF
:1000480083010A128A11662D83120313310880393D
:10005800B6003608BB003108B6003607B7003708C7
:10006800C100B01F382839283A284114410803191B
:100078003E283F284E28410A031D432844284C287F
:100088000030B1000030B0000030AF000030AE00EA
:10009800B01756280030B1000030B0000030AF0073
:1000A8000030AE0035088039B6003608BB06350882
:1000B800B6003607B7003708BC00B41F64286528A7
:1000C80066283C143C0803196A286B287A283C0ADD
:1000D800031D6F28702878280030B5000030B40060
:1000E8000030B3000030B200B41782280030B500E9
:1000F8000030B4000030B3000030B2003C080319EF
:10010800862887288C284108031D8B288C28952849
:100118000030B1000030B0000030AF000030AE0059
:10012800882B2E08B6003608F40034080A128A15FF
:10013800E1250A128A11750883120313C70074088F
:10014800C6004608B600B701B801B9013908C000B1
:100158003808BF003708BE003608BD004708B6009B
:10016800B701B801B9013908C5003808C400370813
:10017800C3003608C2002F08B6003608F40033085A
:100188000A128A15E1250A128A11750883120313C7
:10019800C7007408C6004608B600B701B801B9011F
:1001A8003608BD07370803110318013E0319DD2877
:1001B800BE07380803110318013E0319E428BF07D6
:1001C800390803110318013E0319EB28C007470833
:1001D800B600B701B801B9013608C20737080311DC
:1001E8000318013E0319F928C30738080311031837
:1001F800013E03190029C407390803110318013EF9
:1002080003190729C5073008B6003608F400320874
:100218000A128A15E1250A128A1175088312031336
:10022800C7007408C6004608B600B701B801B9018E
:100238003608BD07370803110318013E031925299D
:10024800BE07380803110318013E03192C29BF07FC
:10025800390803110318013E03193329C007470859
:10026800B600B701B801B9013608C207370803114B
:100278000318013E03194129C3073808031103185D
:10028800013E03194829C407390803110318013E20
:1002980003194F29C5070830B6000310BD0DBE0D60
:1002A800BF0DC00DB60B51292F08B6003608F40053
:1002B80032080A128A15E1250A128A117508831272
:1002C8000313C7007408C6004608B6004708B700FD
:1002D800B801B9013608BD07370803110318013EF4
:1002E80003197729BE07380803110318013E0319BB
:1002F8007E29BF07390803110318013E0319852910
:10030800C0072E08B6003608F40033080A128A150A
:10031800E1250A128A11750883120313C7007408AD
:10032800C6004608B6004708B700B801B901360844
:10033800BD07370803110318013E0319A429BE0796
:10034800380803110318013E0319AB29BF07390800
:1003580003110318013E0319B229C0070830B6007B
:100368000310BD0DBE0DBF0DC00DB60BB4292E0870
:10037800B6003608F40032080A128A15E1250A1276
:100388008A11750883120313C7007408C60046084B
:10039800B6004708B700B801B9013608BD073708E5
:1003A80003110318013E0319DA29BE07380803119F
:1003B8000318013E0319E129BF073908031103187F
:1003C800013E0319E829C0072F08B6003608F400D3
:1003D80034080A128A15E1250A128A11750883124F
:1003E8000313C7007408C6004608B6004708B700DC
:1003F800B801B9013608C207370803110318013ECE
:100408000319072AC307380803110318013E031903
:100418000E2AC407390803110318013E0319152AC7
:10042800C5073008B6003608F40033080A128A15E2
:10043800E1250A128A11750883120313C70074088C
:10044800C6004608B6004708B700B801B901360823
:10045800C207370803110318013E0319342AC307DA
:10046800380803110318013E03193B2AC407390849
:1004780003110318013E0319422AC5073008B600C4
:100488003608F40034080A128A15E1250A128A117E
:10049800750883120313C7007408C6004608B6001F
:1004A8004708B700B801B90108300310B60DB70DF9
:1004B800B80DB90DFF3E031D592A3608C207370883
:1004C80003110318013E03196A2AC30738080311E8
:1004D8000318013E0319712AC407390803110318C8
:1004E800013E0319782AC5073D08B6003E08B70043
:1004F8003F08B8004008B90018300310B90CB80C10
:10050800B70CB60CFF3E031D812A3608C207370810
:1005180003110318013E0319922AC307380803116F
:100528000318013E0319992AC4073908031103184F
:10053800013E0319A02AC5070830B6000310BD0DF7
:10054800BE0DBF0DC00DB60BA22A41083C07B60070
:10055800B701B70D3608823EC60037080318013EBA
:10056800FF3EC700D42A0130B6000310C20DC30DE8
:10057800C40DC50DB60BB92AC01FC32AC42AC52A83
:1005880042140130B6000310BD0DBE0DBF0DC00DE5
:10059800B60BC72AFF30C6070318C70AFF30C707BC
:1005A800C41FD72AD82AB72ABC01C01FDC2ADD2AD3
:1005B800F92AFF303D05B600FF303E05B700FF3091
:1005C8003F05B8007F304005B900390838043704C2
:1005D80036040319F02AF12AF42ABC01BC0AF92AC4
:1005E800421CF72AF82AF92AF12A3C080319FD2A9D
:1005F800FE2A2F2B0130C207003003180130C30731
:10060800003003180130C407003003180130C50753
:10061800451C0F2B102B2F2B4208B6004308B700A0
:100628004408B8004508B9000130BA00390DB90CC2
:10063800B80CB70CB60CBA0B1A2B3908C500380819
:10064800C4003708C3003608C2000130C6070318C3
:10065800C70A0030C7074708803AFF0080307F028A
:10066800031D382BFF304602031C3B2B3C2B472B2A
:100678007F3083120313C5008030C4000030C300EC
:100688000030C2007C2B831203134708803AFF0016
:1006980080307F02031D522B013046020318552B70
:1006A800562B622B003083120313C5000030C400A0
:1006B8000030C3000030C200BB017C2B831203133F
:1006C8004608B6003608C100FF30C205FF30C30532
:1006D8007F30C4050030C505411C732B742B752B66
:1006E800C4174108B6000310360CB7003708C50018
:1006F8003B08B6003608C5044508B1004408B000F8
:100708004308AF004208AE000800831203134F08E5
:100718008039D0005008D9004F08D0005007D100C8
:100728005108E000CE1F992B9A2B9B2B6014600870
:1007380003199F2BA02BB02B600A031DA42BA52BFC
:10074800AD2B0030CF000030CE000030CD0000309F
:10075800CC00CE17CF01B82B0030CF000030CE0030
:100768000030CD000030CC004B088039D000500854
:10077800D9064B08D0005007D1005108E100CA1F24
:10078800C62BC72BC82B611461080319CC2BCD2BA2
:10079800DD2B610A031DD12BD22BDA2B0030CB00C5
:1007A8000030CA000030C9000030C800CA17CB01A9
:1007B800E52B0030CB000030CA000030C900003003
:1007C800C8004B084A0449044804031DEC2BED2BD0
:1007D800062C0030CF000030CE000030CD000030B5
:1007E800CC008030CE047F30CF045908D0005008A8
:1007F800CF044F08CB004E08CA004D08C9004C086A
:10080800C800652D6008031D0A2C0B2C142C003021
:10081800CB000030CA000030C9000030C800652D88
:100828006008D000D1015108D30061085002D200FD
:10083800031CD30352087F3EDA0053080318013E15
:10084800003EDB004F08D8004E08D7004D08D60000
:100858004C08D5000030CF000030CE000030CD006D
:100868000030CC000030DF000030DE000030DD005A
:100878000030DC00E1018A2C61080319442C452C66
:10088800652C0130D0000310D50DD60DD70DD80D2D
:10089800D00B472C0130D0000310CC0DCD0DCE0D60
:1008A800CF0DD00B502CDF1F5A2C5B2C5C2C4C141A
:1008B8000130D0000310DC0DDD0DDE0DDF0DD00B97
:1008C8005E2C4B085802031D732C4A085702031D5F
:1008D800732C49085602031D732C48085502031C43
:1008E800762C772C862C5F174808D5024908031CFC
:1008F800490FD6024A08031C4A0FD7024B08031CAB
:100908004B0FD8020130D0005008E1071A306102BD
:10091800031C8F2C902C402C58085704560455045F
:100928000319972C982CB72C5C14B72C0130D000E5
:100938000310CC0DCD0DCE0DCF0DD00B9C2CDF1F91
:10094800A62CA72CA82C4C140130D0000310DC0DC9
:10095800DD0DDE0DDF0DD00BAA2CFF30DA070318F2
:10096800DB0AFF30DB07CE1FBA2CBB2C9A2CE10127
:10097800DF1FBF2CC02CDC2CFF305C05D000FF3003
:100988005D05D100FF305E05D2007F305F05D300E2
:1009980053085204510450040319D32CD42CD72CD7
:1009A800E101E10ADC2C4C1CDA2CDB2CDC2CD42CED
:1009B80061080319E02CE12C122D0130CC0700301E
:1009C80003180130CD07003003180130CE0700307E
:1009D80003180130CF074F1CF22CF32C122D4C08B2
:1009E800D0004D08D1004E08D2004F08D300013086
:1009F800D400530DD30CD20CD10CD00CD40BFD2C3D
:100A08005308CF005208CE005108CD005008CC0042
:100A18000130DA070318DB0A0030DB075B08803A8D
:100A2800FF0080307F02031D1B2DFF305A02031C7C
:100A38001E2D1F2D2D2DFF3083120313DA000030D9
:100A4800DB000030CF000030CE000030CD00003099
:100A5800CC00831203135B08803AFF0080307F02CA
:100A6800031D382D01305A0203183B2D3C2D492D0A
:100A780083120313DA01DB010030CF000030CE000F
:100A88000030CD000030CC00D901831203135A087E
:100A9800D0005008E000601C522D532D552DCE1764
:100AA800592D7F30D0005008CE056008D0000310C3
:100AB800500CD1005108CF005908D0005008CF047D
:100AC800FD2B08000A128A1578250A128A110A12C3
:100AD8008A151B250A128A1183120313A001A1018A
:100AE800A20124300A128A1539250A128A11033004
:100AF80083160313B5009730B400B40B812DB50BE2
:100B0800812D003083120313A000A1000030A20041
:100B1800A3000A128A1526250A128A1183160313BE
:100B2800B4003408F900433083120313CB007F303C
:100B3800CA000030C9000030C8004030B100A03001
:100B4800B0000030AF000030AE0079088316031300
:100B5800B400B501B601B701370883120313A30027
:100B680083160313360883120313A2008316031394
:100B7800350883120313A100831603133408831264
:100B88000313A00001300A128A11D7260A128A110B
:100B9800831203132308B5002208B4002108B30008
:100BA8002008B2000A128A1128200A128A11831218
:100BB80003133108CF003008CE002F08CD002E08CF
:100BC800CC000A128A1189230A128A11831203138C
:100BD8004B08E5004A08E4004908E3004808E20039
:100BE8006508B5006408B4006308B3006208B20081
:100BF8004230B100C830B0000030AF000030AE0065
:100C08000A128A1128200A128A1183120313310842
:100C1800CB003008CA002F08C9002E08C8000A12E5
:100C28008A1584270A128A11831203134908F700C8
:100C38004808F6000A30A8000030A9007708AB0081
:100C48007608AA000A128A15B7260A128A11831290
:100C580003132908EB002808EA006B08B1006A08AA
:100C6800B0000A30B2000030B300AF300A128A1563
:100C7800BB250A128A110A3083120313A800003018
:100C8800A9000A30A0000030A1007708A300760868
:100C9800A2000A128A1193270A128A1183120313D7
:100CA8002108AB002008AA000A128A15B7260A12E2
:100CB8008A11831203132908E9002808E800690843
:100CC800B1006808B0000A30B2000030B300AA30A2
:100CD8000A128A15BB250A128A110A3083120313D5
:100CE800A8000030A9006430A0000030A1007708F7
:100CF800A3007608A2000A128A1193270A128A1101
:100D0800831203132108AB002008AA000A128A15CF
:100D1800B7260A128A11831203132908E700280844
:100D2800E6006708B1006608B0000A30B20000307B
:100D3800B300A5300A128A15BB250A128A110130A0
:100D480083160313B4003408F400A0300A128A157D
:100D580098250A128A11AF3083160313B400340899
:100D6800F400AA300A128A150A260A128A11AA3031
:100D780083160313B4003408F400A0300A128A154D
:100D88000A260A128A11A03083160313B400340805
:100D9800F400A5300A128A150A260A128A116B2D48
:100DA8000A128A110C2883120313A80028080319B1
:100DB800DE2EDF2EF32EA31FE22EE32EF32E2009C4
:100DC800AA002109AB002209AC002309AD00AA0A38
:100DD8000319AB0A0319AC0A0319AD0AFB2E230841
:100DE800AD002208AC002108AB002008AA002308A7
:100DF800220421042004031D022F032F0C2F00308E
:100E0800A3000030A2000030A1000030A000922F03
:100E18009630A4002408A9001E2F0130A40024083D
:100E2800A90701300310AD0CAC0CAB0CAA0CFF3EAB
:100E3800031D162FFE302D05031D232F242F112FE0
:100E4800402F0130A4002408A9070130AA07003068
:100E580003180130AB07003003180130AC0700302D
:100E680003180130AD0701300310AD0CAC0CAB0C0E
:100E7800AA0CFF3E031D382FFF302D05031D452FFB
:100E8800462F252F522F0130A9020130A40003104C
:100E9800AA0DAB0DAC0DAD0DA40B4B2FAC1B552FF4
:100EA800562F5C2F0230290203185B2F5C2F472F27
:100EB80029185F2F602F682FFF30AA05FF30AB0578
:100EC8007F30AC05FF30AD050310A90C2908A4003C
:100ED800A501A601A70118300310A40DA50DA60DA4
:100EE800A70DFF3E031D702F2408AA042508AB0494
:100EF8002608AC042708AD0428080319842F852F79
:100F08008A2FA31F882F892F8A2FAD172D08A3009A
:100F18002C08A2002B08A1002A08A00008008312B0
:100F28000313A501A11F992F9A2FA12FA009A10989
:100F3800A00A0319A10AA501A50AA31FA42FA52F7A
:100F4800AE2FA209A309A20A0319A30A0130F400CB
:100F58007408A506A601A701200821040319B52FC6
:100F6800B62FED2FA401A40AC42F01300310A00D41
:100F7800A10DFF3E031DBA2F0130F4007408A40729
:100F8800A11FC72FC82FB92F01300310A60DA70D19
:100F9800FF3E031DC92F21082302031DD52F20085A
:100FA8002202031CD82FD92FE02F2008A2022108E3
:100FB800031CA303A302261401300310A10CA00CE8
:100FC800FF3E031DE12F0130A402031DEC2FED2F7E
:100FD800C82F25080319F12FF22FF72FA609A70903
:100FE800A60A0319A70A2708A1002608A0000800D6
:1010000008308A000408840A820700342E34003431
:1019FA00F000700883120313930008008316031380
:101A0A00141C082D092D032D080064008001840A86
:101A1A0004060319003404060B2D0A128A1503253D
:101A2A000A128A1583120313130808008312031378
:101A3A001F179F131F14831603139F131F129F123E
:101A4A00080083120313200C031C1F1103181F150F
:101A5A00220C031C9F1103189F151F129F121F149B
:101A6A009F140C131E080800F40083160313871230
:101A7A000716741D412D422D4A2D83120313220885
:101A8A008316031394008715522D8312031320081B
:101A9A002204831603139400871174088312031314
:101AAA00210494000800831203138C1D5D2D5E2D02
:101ABA00712D0A128A1512250A128A15F100710867
:101ACA0083120313EC00A5300A128A15FD240A12A8
:101ADA008A15831203138C1173088A00720E83000D
:101AEA00FE0E7E0E09002130831603178800890135
:101AFA002130831603138500860110308700880180
:101B0A0083120313850186018701880189018316DF
:101B1A00031385160F088F3960388F008F110F1144
:101B2A008F100F14080083120313A0002008F50079
:101B3A007508A100A82D0130F5007508A10701302C
:101B4A00F5007508F407740884000A128A15002043
:101B5A000A128A15F500210884007508831380008B
:101B6A000008031DB92DBA2DA02D080083120313F6
:101B7A00B600B11FC12DC22DD22D2D30B4003608AA
:101B8A0084003408831380000130B4003408B60797
:101B9A00B009B109B00A0319B10A3108A80030081E
:101BAA00A7003308AA003208A90036080A128A15C3
:101BBA0012270A128A15080083120313A600A2012B
:101BCA00A3017408A000A1012008A4002108A5000F
:101BDA00261CF02DF12DF72D2408A2070318A30ABD
:101BEA002508A30701300310A40DA50DFF3E031D10
:101BFA00F82D0310A60C2608031D042E052EED2D24
:101C0A002308F5002208F400080083120313A00039
:101C1A002008F5007508A100162E0130F500750898
:101C2A00A1072108840083130008031D1D2E1E2E00
:101C3A00122E272E0130F5007508A1070130F50094
:101C4A007508F407740884000008F5002108840068
:101C5A00750880000008031D332E342E1F2E08003D
:101C6A00831203132008210403193C2E3D2E6C2EE7
:101C7A00F501F50A4B2E01300310A00DA10DFF3E10
:101C8A00031D412E0130F4007408F507A11F4E2EE2
:101C9A004F2E402E21082302031D552E2008220212
:101CAA00031C582E592E5F2E2008A2022108031C5D
:101CBA00A303A30201300310A10CA00CFF3E031DD5
:101CCA00602E0130F502031D6B2E6C2E4F2E230859
:101CDA00A1002208A000080083120313A501A6018F
:101CEA002008210403197A2E7B2EB22EA401A40AFD
:101CFA00892E01300310A00DA10DFF3E031D7F2E7A
:101D0A000130F4007408A407A11F8C2E8D2E7E2E9C
:101D1A0001300310A50DA60DFF3E031D8E2E2108CE
:101D2A002302031D9A2E20082202031C9D2E9E2E9A
:101D3A00A52E2008A2022108031CA303A30225142E
:101D4A0001300310A10CA00CFF3E031DA62E01308A
:101D5A00A402031DB12EB22E8D2E2608A10025083D
:101D6A00A000080083120313AD01AB1FBD2EBE2EC7
:101D7A00C52EAA09AB09AA0A0319AB0AAD01AD0A15
:101D8A00A91FC82EC92ECE2EA809A909A80A031967
:101D9A00A90A280829040319D32ED42E032FAC012B
:101DAA00AC0AE22E01300310A80DA90DFF3E031D57
:101DBA00D82E0130F5007508AC07A91FE52EE62ECE
:101DCA00D72E29082B02031DEC2E28082A02031CF1
:101DDA00EF2EF02EF62E2808AA022908031CAB03C0
:101DEA00AB0201300310A90CA80CFF3E031DF72E0D
:101DFA000130AC02031D022F032FE62E2D08031912
:101E0A00072F082F0D2FAA09AB09AA0A0319AB0A33
:101E1A002B08A9002A08A800080083120313AF00A0
:101E2A002808AD002708AC002A08A1002908A0004C
:101E3A002D08A3002C08A2000A128A1571260A127C
:101E4A008A15831203132108AD002008AC00013063
:101E5A00AB002B08AF072C082D04031D352F362F96
:101E6A00192F2F088400831380010130AF022A083A
:101E7A00A1002908A0002808A3002708A2000A1226
:101E8A008A1535260A128A15831203132008AB0015
:101E9A002B08AE002A08A1002908A0002808A300E0
:101EAA002708A2000A128A1571260A128A158312B5
:101EBA0003132108A8002008A7000A302E02031CD9
:101ECA00672F682F6C2F0730AB002B08AE07303016
:101EDA00AB002B08AE072E08AB002F0884002B0896
:101EEA00831380000130AF0227082804031D7E2FC8
:101EFA007F2F3C2F0130AB002B08AF0708000310DF
:101F0A00831203134A0D4B0DCC004C08D200520821
:101F1A00031D902F912F9A2F0030CB000030CA005A
:101F2A000030C9000030C800FF2F4808CC0049081B
:101F3A00CD004A08CE004B08CF001F300310CF0C4B
:101F4A00CE0CCD0CCC0CFF3E031DA32F4C08D000A9
:101F5A005008D100CA17FF30C805FF30C905FF3045
:101F6A00CA050030CB059630D202D21FBD2FBE2F34
:101F7A00D82F5208803A973E0318C42FC52FC62F70
:101F8A00912F01300310CB0CCA0CC90CC80CFF3EB0
:101F9A00031DC72F0130CC004C08D207031DD62FD2
:101FAA00D72FC62FEF2F20305202031CDD2FDE2F32
:101FBA00EA2F912F0130CC000310C80DC90DCA0DAC
:101FCA00CB0DCC0BE12F0130D2025208031DEE2FAC
:101FDA00EF2FDF2F51080319F32FF42FFF2FC80912
:101FEA00C909CA09CB09C80A0319C90A0319CA0ABD
:061FFA000319CB0A0800E8
:04400E00D120FF3F7F
:00000001FF
