:020000040000FA
:060000000A128A11EB2F29
:10000C00700C83120313031C1F1103181F15720CA1
:10001C00031C9F1103189F151F129F121F149F146E
:10002C000C131E0808000310831203133C0D3D0D26
:10003C00BE003E08C4004408031D252826282F288E
:10004C000030BD000030BC000030BB000030BA00F6
:10005C0094283A08BE003B08BF003C08C0003D088D
:10006C00C1001F300310C10CC00CBF0CBE0CFF3EF6
:10007C00031D38283E08C2004208C300BC17FF30DD
:10008C00BA05FF30BB05FF30BC050030BD0596300E
:10009C00C402C41F522853286D284408803A973E46
:1000AC00031859285A285B28262801300310BD0C48
:1000BC00BC0CBB0CBA0CFF3E031D5C280130BE000F
:1000CC003E08C407031D6B286C285B28842820304D
:1000DC004402031C722873287F2826280130BE0096
:1000EC000310BA0DBB0DBC0DBD0DBE0B7628013037
:1000FC00C4024408031D8328842874284308031968
:10010C00882889289428BA09BB09BC09BD09BA0AF0
:10011C000319BB0A0319BC0A0319BD0A0800F8002D
:10012C00780803199A289B28AF28F31F9E289F282C
:10013C00AF287009FA007109FB007209FC00730901
:10014C00FD00FA0A0319FB0A0319FC0A0319FD0A3C
:10015C00B7287308FD007208FC007108FB007008DA
:10016C00FA007308720471047004031DBE28BF28C2
:10017C00C8280030F3000030F2000030F1000030ED
:10018C00F0004E299630F4007408F900DA2801309A
:10019C00F4007408F90701300310FD0CFC0CFB0C87
:1001AC00FA0CFF3E031DD228FE307D05031DDF280F
:1001BC00E028CD28FC280130F4007408F907013040
:1001CC00FA07003003180130FB0700300318013028
:1001DC00FC07003003180130FD0701300310FD0C43
:1001EC00FC0CFB0CFA0CFF3E031DF428FF307D05C4
:1001FC00031D01290229E1280E290130F9020130E1
:10020C00F4000310FA0DFB0DFC0DFD0DF40B07298A
:10021C00FC1B1129122918290230790203181729FD
:10022C001829032979181B291C292429FF30FA05C0
:10023C00FF30FB057F30FC05FF30FD050310F90C8A
:10024C007908F400F501F601F70118300310F40DEC
:10025C00F50DF60DF70DFF3E031D2C297408FA045D
:10026C007508FB047608FC047708FD04780803196C
:10027C00402941294629F31F442945294629FD17C0
:10028C007D08F3007C08F2007B08F1007A08F0008E
:10029C0008000A128A154F250A128A110A128A15A9
:1002AC0038250A128A1103300A128A1582260A127C
:1002BC008A11C73083120313D4006429D40B632929
:1002CC0067290030F000F1000030F200F3000A1250
:1002DC008A1106200A128A1183120313D4005408BF
:1002EC00E5004330BD007F30BC000030BB00003067
:1002FC00BA004030A300A030A2000030A1000030B2
:10030C00A0006508D400D501D601D7015708F30029
:10031C005608F2005508F1005408F00001300A129A
:10032C008A1195200A128A11730883120313A700ED
:10033C007208A6007108A5007008A4000A128A11A0
:10034C008A240A128A11831203132308C10022087B
:10035C00C0002108BF002008BE000A128A11AD227D
:10036C000A128A11831203133D08DB003C08DA00E1
:10037C003B08D9003A08D8005B08A7005A08A60029
:10038C005908A5005808A4004230A300C830A200A8
:10039C000030A1000030A0000A128A118A240A122F
:1003AC008A11831203132308BD002208BC00210804
:1003BC00BB002008BA000A128A1119200A128A11ED
:1003CC00831203133B08E3003A08E2000A30F900F9
:1003DC000030FA006308FC006208FB000A128A1560
:1003EC00CC260A128A117A0883120313E1007908C9
:1003FC00E0006108A5006008A4000A30A6000030E7
:10040C00A700A5300A128A158E250A128A110A3005
:10041C00F9000030FA000A30F0000030F1008312CD
:10042C0003136308F3006208F2000A128A152727E7
:10043C000A128A117108FC007008FB000A128A1556
:10044C00CC260A128A117A0883120313DF0079086A
:10045C00DE005F08A5005E08A4000A30A60000308C
:10046C00A7006B300A128A158E250A128A110A30DF
:10047C00F9000030FA006430F0000030F100831213
:10048C0003136308F3006208F2000A128A15272787
:10049C000A128A117108FC007008FB000A128A15F6
:1004AC00CC260A128A117A0883120313DD0079080C
:1004BC00DC005D08A5005C08A4000A30A600003032
:1004CC00A70066300A128A158E250A128A1101308D
:1004DC0083120313D4005408F000A0300A128A15BA
:1004EC006D250A128A11A53083120313D400540807
:1004FC00F0006B300A128A15DB250A128A116B3058
:10050C0083120313D4005408F000A0300A128A1589
:10051C00DB250A128A11A03083120313D40054086D
:10052C00F00066300A128A15DB250A128A11003097
:10053C000A128A1543250A128A1166300A128A1584
:10054C0029250A128A1154290A128A1100288312A9
:10055C00031341088039C2004208CB004108C20095
:10056C004207C3004308D200C01FBD2ABE2ABF2ABF
:10057C00521452080319C32AC42AD42A520A031D3E
:10058C00C82AC92AD12A0030C1000030C00000306E
:10059C00BF000030BE00C017C101DC2A0030C10012
:1005AC000030C0000030BF000030BE003D08803974
:1005BC00C2004208CB063D08C2004207C3004308F4
:1005CC00D300BC1FEA2AEB2AEC2A53145308031954
:1005DC00F02AF12A012B530A031DF52AF62AFE2ACA
:1005EC000030BD000030BC000030BB000030BA0051
:1005FC00BC17BD01092B0030BD000030BC00003021
:10060C00BB000030BA003D083C043B043A04031D17
:10061C00102B112B2A2B0030C1000030C0000030F1
:10062C00BF000030BE008030C0047F30C1044B08D6
:10063C00C2004208C1044108BD004008BC003F088C
:10064C00BB003E08BA00892C5208031D2E2B2F2B01
:10065C00382B0030BD000030BC000030BB00003037
:10066C00BA00892C5208C200C3014308C5005308C4
:10067C004202C400031CC50344087F3ECC0045085D
:10068C000318013E003ECD004108CA004008C900D5
:10069C003F08C8003E08C7000030C1000030C00051
:1006AC000030BF000030BE000030D1000030D00060
:1006BC000030CF000030CE00D301AE2B530803190D
:1006CC00682B692B892B0130C2000310C70DC80D94
:1006DC00C90DCA0DC20B6B2B0130C2000310BE0D2D
:1006EC00BF0DC00DC10DC20B742BD11F7E2B7F2BE8
:1006FC00802B3E140130C2000310CE0DCF0DD00D57
:10070C00D10DC20B822B3D084A02031D972B3C08CE
:10071C004902031D972B3B084802031D972B3A08EF
:10072C004702031C9A2B9B2BAA2B51173A08C70282
:10073C003B08031C3B0FC8023C08031C3C0FC902BE
:10074C003D08031C3D0FCA020130C2004208D3070A
:10075C001A305302031CB32BB42B642B4A084904E4
:10076C00480447040319BB2BBC2BDB2B4E14DB2B8F
:10077C000130C2000310BE0DBF0DC00DC10DC20B68
:10078C00C02BD11FCA2BCB2BCC2B3E140130C2005B
:10079C000310CE0DCF0DD00DD10DC20BCE2BFF30D3
:1007AC00CC070318CD0AFF30CD07C01FDE2BDF2B83
:1007BC00BE2BD301D11FE32BE42B002CFF304E05B5
:1007CC00C200FF304F05C300FF305005C4007F301E
:1007DC005105C50045084404430442040319F72B92
:1007EC00F82BFB2BD301D30A002C3E1CFE2BFF2B2A
:1007FC00002CF82B53080319042C052C362C013033
:10080C00BE07003003180130BF0700300318013059
:10081C00C007003003180130C107411C162C172CDF
:10082C00362C3E08C2003F08C3004008C4004108F3
:10083C00C5000130C600450DC50CC40CC30CC20C60
:10084C00C60B212C4508C1004408C0004308BF005A
:10085C004208BE000130CC070318CD0A0030CD078A
:10086C004D08803AFF0080307F02031D3F2CFF3083
:10087C004C02031C422C432C512CFF3083120313CB
:10088C00CC000030CD000030C1000030C000003082
:10089C00BF000030BE00831203134D08803AFF00E6
:1008AC0080307F02031D5C2C01304C0203185F2C3E
:1008BC00602C6D2C83120313CC01CD010030C100D0
:1008CC000030C0000030BF000030BE00CB018312EE
:1008DC0003134C08C2004208D200521C762C772C11
:1008EC00792CC0177D2C7F30C2004208C0055208FD
:1008FC00C2000310420CC3004308C1004B08C200E5
:10090C004208C104212B08008312031323088039E9
:10091C00A8002808AD002308A8002807A90029086A
:10092C00B300A21F9A2C9B2C9C2C33143308031954
:10093C00A02CA12CB02C330A031DA52CA62CAE2C5C
:10094C000030A3000030A2000030A1000030A00055
:10095C00A217B82C0030A3000030A2000030A10078
:10096C000030A00027088039A8002808AD06270809
:10097C00A8002807A9002908B200A61FC62CC72C5E
:10098C00C82C321432080319CC2CCD2CDC2C320A96
:10099C00031DD12CD22CDA2C0030A7000030A6007D
:1009AC000030A5000030A400A617E42C0030A700EE
:1009BC000030A6000030A5000030A4003208031956
:1009CC00E82CE92CEE2C3308031DED2CEE2CF72C27
:1009DC000030A3000030A2000030A1000030A000C5
:1009EC00EA2F2008A8002808F00026080A128A1509
:1009FC00B4250A128A11710883120313B900700806
:100A0C00B8003808A800A901AA01AB012B08B10055
:100A1C002A08B0002908AF002808AE003908A80041
:100A2C00A901AA01AB012B08B7002A08B6002908B6
:100A3C00B5002808B4002108A8002808F0002508F3
:100A4C000A128A15B4250A128A117108831203132B
:100A5C00B9007008B8003808A800A901AA01AB01B8
:100A6C002808AE07290803110318013E03193F2D6E
:100A7C00AF072A0803110318013E0319462DB007CE
:100A8C002B0803110318013E03194D2DB10739082A
:100A9C00A800A901AA01AB012808B4072908031171
:100AAC000318013E03195B2DB5072A08031103181F
:100ABC00013E0319622DB6072B0803110318013EE2
:100ACC000319692DB7072208A8002808F00024088C
:100ADC000A128A15B4250A128A117108831203139B
:100AEC00B9007008B8003808A800A901AA01AB0128
:100AFC002808AE07290803110318013E0319872D96
:100B0C00AF072A0803110318013E03198E2DB007F5
:100B1C002B0803110318013E0319952DB107390851
:100B2C00A800A901AA01AB012808B40729080311E0
:100B3C000318013E0319A32DB5072A080311031846
:100B4C00013E0319AA2DB6072B0803110318013E09
:100B5C000319B12DB7070830A8000310AE0DAF0D67
:100B6C00B00DB10DA80BB32D2108A8002808F0007A
:100B7C0024080A128A15B4250A128A1171088312E4
:100B8C000313B9007008B8003808A8003908A90088
:100B9C00AA01AB012808AE07290803110318013E6E
:100BAC000319D92DAF072A0803110318013E0319A5
:100BBC00E02DB0072B0803110318013E0319E72D94
:100BCC00B1072008A8002808F00025080A128A1589
:100BDC00B4250A128A11710883120313B900700824
:100BEC00B8003808A8003908A900AA01AB012808E8
:100BFC00AE07290803110318013E0319062EAF078F
:100C0C002A0803110318013E03190D2EB0072B08F7
:100C1C0003110318013E0319142EB1070830A80064
:100C2C000310AE0DAF0DB00DB10DA80B162E200894
:100C3C00A8002808F00024080A128A15B4250A1204
:100C4C008A11710883120313B9007008B8003808B0
:100C5C00A8003908A900AA01AB012808AE07290889
:100C6C0003110318013E03193C2EAF072A08031188
:100C7C000318013E0319432EB0072B080311031868
:100C8C00013E03194A2EB1072108A8002808F000DC
:100C9C0026080A128A15B4250A128A1171088312C1
:100CAC000313B9007008B8003808A8003908A90067
:100CBC00AA01AB012808B407290803110318013E47
:100CCC000319692EB5072A0803110318013E0319ED
:100CDC00702EB6072B0803110318013E0319772E4B
:100CEC00B7072208A8002808F00025080A128A1560
:100CFC00B4250A128A11710883120313B900700803
:100D0C00B8003808A8003908A900AA01AB012808C6
:100D1C00B407290803110318013E0319962EB507D1
:100D2C002A0803110318013E03199D2EB6072B0840
:100D3C0003110318013E0319A42EB7072208A800BB
:100D4C002808F00026080A128A15B4250A128A11FE
:100D5C00710883120313B9007008B8003808A80092
:100D6C003908A900AA01AB0108300310A80DA90D80
:100D7C00AA0DAB0DFF3E031DBB2E2808B407290896
:100D8C0003110318013E0319CC2EB5072A080311D1
:100D9C000318013E0319D32EB6072B0803110318B1
:100DAC00013E0319DA2EB7072E08A8002F08A90058
:100DBC003008AA003108AB0018300310AB0CAA0C99
:100DCC00A90CA80CFF3E031DE32E2808B407290824
:100DDC0003110318013E0319F42EB5072A08031159
:100DEC000318013E0319FB2EB6072B080311031839
:100DFC00013E0319022FB7070830A8000310AE0DEF
:100E0C00AF0DB00DB10DA80B042F33083207A8009D
:100E1C00A901A90D2808823EB80029080318013E33
:100E2C00FF3EB900362F0130A8000310B40DB50DEC
:100E3C00B60DB70DA80B1B2FB11F252F262F272F53
:100E4C0034140130A8000310AE0DAF0DB00DB10D70
:100E5C00A80B292FFF30B8070318B90AFF30B907C0
:100E6C00B61F392F3A2F192FB201B11F3E2F3F2F2A
:100E7C005B2FFF302E05A800FF302F05A900FF3097
:100E8C003005AA007F303105AB002B082A04290459
:100E9C0028040319522F532F562FB201B20A5B2F7D
:100EAC00341C592F5A2F5B2F532F320803195F2FE5
:100EBC00602F912F0130B407003003180130B507B3
:100ECC00003003180130B607003003180130B707A3
:100EDC00371C712F722F912F3408A8003508A900E8
:100EEC003608AA003708AB000130AC002B0DAB0C58
:100EFC00AA0CA90CA80CAC0B7C2F2B08B7002A0849
:100F0C00B6002908B5002808B4000130B80703184A
:100F1C00B90A0030B9073908803AFF0080307F02E7
:100F2C00031D9A2FFF303802031C9D2F9E2FA92FD3
:100F3C007F3083120313B7008030B6000030B50049
:100F4C000030B400DE2F831203133908803AFF00FF
:100F5C0080307F02031DB42F013038020318B72FE5
:100F6C00B82FC42F003083120313B7000030B60023
:100F7C000030B5000030B400AD01DE2F8312031336
:100F8C003808A8002808B300FF30B405FF30B505B9
:100F9C007F30B6050030B705331CD52FD62FD72F91
:100FAC00B6173308A8000310280CA9002908B700AD
:100FBC002D08A8002808B7043708A3003608A2009B
:100FCC003508A1003408A0000800831358308400B1
:100FDC0070300A128A1530250A128A11A03084004A
:100FEC00AA300A128A1530250A128A1183010A12B4
:100FFC008A114F2908308A000408840A82070034B9
:04100C002E3400344A
:101A5200F00070088312031393008C1108006400D5
:101A62008001840A0406031900340406312D83120E
:101A720003131F179F131F14831603139F131F12A1
:101A82009F12080083160313141C482D492D4A2D5A
:101A92004E2D14184D2D4E2D4E2D08000930831653
:101AA2000317880089010930831603138500860114
:101AB2008801890183120313850186018701880148
:101AC2008901831603130F088F3960388F008F1135
:101AD2000F118F100F140800F2007208F100710844
:101AE200F3007B2D0130F1007108F3070130F100A2
:101AF2007108F007700884000A128A1500200A1281
:101B02008A15F100730884007108831380000008AD
:101B1200031D8C2D8D2D732D080083120313A90034
:101B2200A51F942D952DA52D2D30FD00290884008B
:101B32007D08831380000130FD007D08A907A409F8
:101B4200A509A40A0319A50A2508F9002408F80022
:101B52002708FB002608FA0029080A128A158E2790
:101B62000A128A150800F800F401F5017008F20063
:101B7200F3017208F6007308F700781CC12DC22D1C
:101B8200C82D7608F4070318F50A7708F50701301F
:101B92000310F60DF70DFF3E031DC92D0310F80CBF
:101BA2007808031DD52DD62DBE2D7508F1007408B9
:101BB200F0000800F2007208F1007108F300E52D50
:101BC2000130F1007108F3077308840083130008E1
:101BD200031DEC2DED2DE12DF62D0130F1007108E4
:101BE200F3070130F1007108F00770088400000863
:101BF200F10073088400710880000008031D022EA2
:101C0200032EEE2D0800700871040319092E0A2E06
:101C1200392EF501F50A182E01300310F00DF10DE1
:101C2200FF3E031D0E2E0130F4007408F507F11F6C
:101C32001B2E1C2E0D2E71087302031D222E7008FE
:101C42007202031C252E262E2C2E7008F202710819
:101C5200031CF303F30201300310F10CF00CFF3EFE
:101C6200031D2D2E0130F502031D382E392E1C2E98
:101C72007308F1007208F0000800F501F60170081F
:101C820071040319452E462E7D2EF701F70A542EB4
:101C920001300310F00DF10DFF3E031D4A2E0130FD
:101CA200F4007408F707F11F572E582E492E013001
:101CB2000310F50DF60DFF3E031D592E7108730238
:101CC200031D652E70087202031C682E692E702E89
:101CD2007008F2027108031CF303F3027514013059
:101CE2000310F10CF00CFF3E031D712E0130F702C0
:101CF200031D7C2E7D2E582E7608F1007508F0000B
:101D02000800F200B52E831603138712871194136D
:101D1200141314102030831203139400CB2E831655
:101D22000313871287119413141314102130831292
:101D320003139400CB2E8316031387128711941377
:101D4200141314102230831203139400CB2E831623
:101D520003138712871507169413141314102430D3
:101D6200831203139400CB2E7208F000F101710864
:101D7200003A0319BD2ECB2E7008003A0319842EA7
:101D8200013A0319902E033A03199C2E013A0319C2
:101D9200A82ECB2E080083120313A101FC1FD22E02
:101DA200D32EDA2EFB09FC09FB0A0319FC0AA10156
:101DB200A10AFA1FDD2EDE2EE32EF909FA09F90A2D
:101DC2000319FA0A79087A040319E82EE92E182F62
:101DD200A001A00AF72E01300310F90DFA0DFF3E03
:101DE200031DED2E0130FD007D08A007FA1FFA2E1B
:101DF200FB2EEC2E7A087C02031D012F79087B0250
:101E0200031C042F052F0B2F7908FB027A08031CF1
:101E1200FC03FC0201300310FA0CF90CFF3E031D17
:101E22000C2F0130A002031D172F182FFB2E2108A3
:101E320003191C2F1D2F222FFB09FC09FB0A031972
:101E4200FC0A7C08FA007B08F9000800F601F11F81
:101E52002B2F2C2F332FF009F109F00A0319F10A65
:101E6200F601F60AF31F362F372F402FF209F30936
:101E7200F20A0319F30A0130F4007408F606F701B6
:101E8200F801700871040319472F482F7F2FF501BD
:101E9200F50A562F01300310F00DF10DFF3E031D20
:101EA2004C2F0130F4007408F507F11F592F5A2FF7
:101EB2004B2F01300310F70DF80DFF3E031D5B2F72
:101EC20071087302031D672F70087202031C6A2FC8
:101ED2006B2F722F7008F2027108031CF303F302D6
:101EE200771401300310F10CF00CFF3E031D732F29
:101EF2000130F502031D7E2F7F2F5A2F760803191A
:101F0200832F842F892FF709F809F70A0319F80A92
:101F12007808F1007708F000080083120313A30089
:101F22007908A1007808A0007B08F1007A08F00087
:101F32002108F3002008F2000A128A153E260A122E
:101F42008A15710883120313A1007008A0000130E2
:101F5200FC007C08A30720082104031DB12FB22F27
:101F6200952F23088400831380010130A3027B088C
:101F7200F1007A08F0007908F3007808F2000A12FA
:101F82008A1504260A128A157008FC007C0883123E
:101F92000313A2007B08F1007A08F0007908F3002D
:101FA2007808F2000A128A153E260A128A1571086A
:101FB200F9007008F8000A30831203132202031C8E
:101FC200E32FE42FE82F0730FC007C08A207303013
:101FD200FC007C08A2072208FC00230884007C087D
:101FE200831380000130A30278087904031DFA2FBD
:0E1FF200FB2FB82F0130FC007C08A30708006D
:04400E00D420FF3F7C
:00000001FF
