:020000040000FA
:060000000A128A1110280B
:10000800FE00030E83120313AC000408AD000A08B7
:10001800AE000A128A1113290A128A1113288312B0
:100028000313AF01B001B101B201B301B401B501CD
:10003800B601B701B80183010A128A119229831205
:100048000313A3007908A1007808A0007B08F10039
:100058007A08F0002108F3002008F2000A128A1139
:1000680095200A128A11710883120313A1007008DF
:10007800A0000130FC007C08A30720082104031D10
:10008800462847282A282308840083138001013042
:10009800A3027B08F1007A08F0007908F3007808D9
:1000A800F2000A128A11D9200A128A117008FC007B
:1000B8007C0883120313A2007B08F1007A08F00081
:1000C8007908F3007808F2000A128A1195200A12BA
:1000D8008A117108F9007008F8000A3083120313B6
:1000E8002202031C782879287D280730FC007C0828
:1000F800A2073030FC007C08A2072208FC00230875
:1001080084007C08831380000130A30278087904F6
:10011800031D8F2890284D280130FC007C08A30778
:100128000800F501F6017008710403199C289D2840
:10013800D428F701F70AAB2801300310F00DF10DB0
:10014800FF3E031DA1280130F4007408F707F11FD2
:10015800AE28AF28A02801300310F50DF60DFF3E9C
:10016800031DB02871087302031DBC2870087202B1
:10017800031CBF28C028C7287008F2027108031C96
:10018800F303F302751401300310F10CF00CFF3E79
:10019800031DC8280130F702031DD328D428AF282F
:1001A8007608F1007508F00008007008710403195A
:1001B800DE28DF280E29F501F50AED2801300310A5
:1001C800F00DF10DFF3E031DE3280130F400740823
:1001D800F507F11FF028F128E22871087302031DC2
:1001E800F72870087202031CFA28FB2801297008F6
:1001F800F2027108031CF303F30201300310F10C3F
:10020800F00CFF3E031D02290130F502031D0D29E4
:100218000E29F1287308F1007208F00008008C1EFE
:10022800162917293A291A08AA00AB012A08F0004A
:100238002B08F1000A128A1187210A128A11710803
:1002480083120313B2007008B1003208A500310808
:10025800A4000A30A6000030A70034300A128A1120
:1002680043210A128A11831203138C122E088A0062
:100278002D0884002C0E8300FE0E7E0E09008312CA
:100288000313A900A51F49294A295A292D30FD0021
:10029800290884007D08831380000130FD007D0853
:1002A800A907A409A509A40A0319A50A2508F9009C
:1002B8002408F8002708FB002608FA0029080A1273
:1002C8008A1123200A128A1108000930831603179D
:1002D8008800890109308316031385008601880187
:1002E8008901831203138501860187018801890129
:1002F800831603130F088F3960388F008F110F1181
:100308008F100F140800710883120313B0007008CF
:10031800AF003008F1002F08F00008000A128A1117
:0E03280069210A128A1197290A128A111028D7
:04400E00D420FF3F7C
:00000001FF
